:020000041000EA
:1000000000B5324B212058609868022188439860DF
:10001000D860186158612E4B002199600221596106
:100020000121F02299502B49196001219960352056
:1000300000F044F80222904214D00621196600F024
:1000400034F8196E01211966002018661A6600F04E
:100050002CF8196E196E196E052000F02FF8012189
:100060000842F9D1002199601B49196000215960AB
:100070001A491B48016001219960EB211966A021F2
:10008000196600F012F800219960164914480160C1
:100090000121996001BC002800D000471248134993
:1000A000086003C880F30888084703B5996A0420EC
:1000B0000142FBD001200142F8D103BD02B5186610
:1000C0001866FFF7F2FF186E186E02BD00000240BE
:1000D000000000180000070000035F00212200005C
:1000E000F4000018222000A00001001008ED00E03C
:1000F00000000000000000000000000074B24E7A12
:1001000000200420F7010010CB010010CD010010E9
:10011000C9010010C9010010C9010010C901001077
:10012000C9010010C9010010C9010010CF01001061
:10013000C9010010C9010010D1010010D301001045
:10014000C1010010C1010010C1010010C101001067
:10015000C1010010C1010010C1010010C101001057
:10016000C1010010C1010010C1010010C101001047
:10017000C1010010C1010010C1010010C101001037
:10018000C1010010C1010010C1010010C101001027
:10019000C1010010C1010010C1010010C101001017
:1001A000C1010010C1010010C1010010C101001007
:1001B000C1010010C1010010C1010010C1010010F7
:1001C000EFF30580103800BE00BE00BE00BE00BECA
:1001D00000BE00BEF2EB8871186200103862001099
:1001E0003802001090A31AE71E481F49086006C88D
:1001F00081F3088810471D480068002801D019487D
:10020000F3E70DA40ECC002902D000F012F8F9E7B4
:100210001749184A002000E001C19142FCD116495B
:100220008847164988471649884700BEFDE701C937
:1002300001C29A42FBD3704738620010C000002010
:1002400028160020A07700100000042000000420E1
:10025000A07700100010042000100420000000000F
:10026000704700000000000008ED00E0000000D032
:100270002816002034280020551C0010710400109E
:100280004D1C0010F8B5C0460448054B10B583421C
:1002900003D0044B002B00D0984710BD2816002037
:1002A000281600200000000006480749091A8B1094
:1002B000C90FC91810B5491003D0044B002B00D04A
:1002C000984710BD281600202816002000000000C6
:1002D00010B5074C2378002B09D1FFF7D5FF054B4C
:1002E000002B02D0044800E000BF0123237010BDA2
:1002F000B019002000000000605D0010054B10B533
:10030000002B03D00449054800E000BFFFF7CCFFF5
:1003100010BDC04600000000B4190020605D001050
:10032000F0B5DE4657464E4645460D20E0B5464CF4
:100330009DB0013405F0C8FC20780028F9D1434B6A
:10034000434F984604AB9946424B45460093424B77
:10035000424E0393424B9B46424B0293424B0193C6
:10036000424B9A462C003E20013405F0ADFC20782B
:100370000028F9D13B6840215A680CA805F072F8B2
:100380000028EFD031000CA804F020FA0028E9D0B2
:100390002B0000244D46984628603100002001348F
:1003A00004F014FA002838D00435082CF4D14B4658
:1003B0001B68514618004546984605F07DF8002810
:1003C00013D14B465C682078002805D0013405F035
:1003D0007BFC20780028F9D10D20009C013405F029
:1003E00073FC20780028F9D1BCE75946404605F057
:1003F00063F8002808D1029C4330013405F064FC06
:1004000020780028F9D1ADE74520019C013405F0A2
:100410005BFC20780028F9D1A4E74B461B685146C5
:1004200018004546984605F047F80028DDD14520DC
:10043000039B012CC5D11C00013405F045FC20783C
:100440000028F9D18EE7C046605D0010885D00107D
:10045000B8100020805D00108C5D0010E85D001079
:10046000EC5D0010A85D0010C85D0010F45D001088
:1004700010B501F03DFDFA20C00000F0EDFDFFF7E2
:100480004FFFC0468023DB051868000F7047C04649
:100490000FB400B5084883B001F078FD049B002B31
:1004A00007D005A91800019101F066FB034801F08F
:1004B0006DFD012001F078FBFC5D00100C5E00106A
:1004C00070B5EFF3108C72B60D4D2B68002BFCD07D
:1004D000BFF35F8F0724CB08C618C05C01230C4014
:1004E000A3401C000440034207D118433070BFF3FF
:1004F0005F8F2C608CF3108870BD1000FFF7C8FF71
:100500002C0100D0F8B54746CE46884680B5EFF3BB
:10051000108C72B61C4D2C68002CFCD0BFF35F8F82
:100520009A4222D807210126894602E001329342ED
:1005300018D34D4637001540AF40D4080119045D6B
:100540002742F3D110003C430C70BFF35F8F0022B1
:100550000D4B1A608CF3108800280EDBC0BCB94626
:10056000B046F8BD01204042EFE7BFF35F8F0023A4
:100570002B608CF31088012040424346002BEDD0C5
:100580000898FFF785FFC0462C0100D0044A107878
:10059000431CDBB2172B00D9102313707047C046E1
:1005A000F80F002010B5064B064C82B001000093F6
:1005B00018221F232000FFF7A5FF02B010BDC04680
:1005C000105E0010742300200021044B044ABFF386
:1005D0005F8F02C39342FAD17047C046000100D03A
:1005E000800100D0054B064A1360064A1360536031
:1005F0009360D36013615361936170478080808002
:1006000000E400E004E400E01F2318401E3B8340A8
:10061000002905D0C021044A490053501360704797
:10062000802201498B50FAE700E100E0012282407C
:10063000034B1B6813405A1E9341D8B27047C04603
:1006400000E100E001238340014A13607047C04687
:1006500000E200E0064B10309B688000C358054A5A
:1006600000209B1A2F229A424041C0B27047C046D8
:1006700000ED00E0FC0F002070B50D00EFF31086D8
:1006800072B60F4A1368002BFCD0BFF35F8F0D4B7F
:1006900010309B6884001B590B4A934203D09D4243
:1006A00001D001F033F8074B9B681D51BFF35F8FFA
:1006B000BFF35F8F0022024B1A6086F3108870BD73
:1006C000240100D000ED00E0C1010010F0B5574654
:1006D0004E46DE464546E0B585B00600009117005F
:1006E000EFF3108B72B66A4A1368002BFCD0BFF38D
:1006F0005F8F0025674B5D579A46002D00DAA9E011
:100700006B00654C01935B199B009846A146C14460
:100710004B4652469B7910361370604BB6009B686F
:1007200099590B1B2F2B33D95D4B994200D0ACE06C
:10073000019B42469C465B4B6544AD0063535A4B5C
:100740000232A218043B9B1A1B05584A5B0D65191F
:1007500013436B80564B0121AB80FF23AB71009B91
:10076000EF71AB604B460B4319004C4B9B689951A2
:10077000BFF35F8FBFF35F8F0022454B1A608BF38F
:10078000108805B0F0BCBB46B246A946A046F0BDF5
:1007900001200A008243D3798C46BB4231D84546BA
:1007A000130044491B1B5B415943090D3D4B6353E7
:1007B0003D4B02356519043B5B1B1B053B4D5B0D37
:1007C0002B43AA464D466B800425AC465546E04473
:1007D000131F44441B1B1B055B0D1D434B469971A6
:1007E00000999D8099604946DF71334B0143136046
:1007F000BBE75800C01880002018C179B9422FD932
:1008000002000623D356002BF3DA02932B4B6146EA
:100810000393131D9A4604235B429C46E1445046D1
:100820004B461B1A1B055B0D9C46204B9571984649
:100830006346404603439380019B5A199200039BF1
:10084000A418A380029B1C4AA371009B2260E7713D
:10085000A3608AE700F05AFF002553465D574FE733
:10086000908802934005131D9A46031561469C46E5
:100870004046D444634604302018181AE02300058B
:10088000400D1B0218430390C5E700F03FFF4FE700
:10089000240100D02D280020FC0F002000ED00E0F6
:1008A000C101001000A1FFFF2C10002000E0FFFF9D
:1008B00001BDFFFFAAAA00000148804701BD00005A
:1008C00070B501240443EFF30581EFF3108C72B689
:1008D000214A1368002BFCD0BFF35F8F1F4B05002C
:1008E0001F4AED1A6D416A43120D1E4D8900AE6814
:1008F00052B27658A6421CD00621595691421CD0BD
:1009000012215956914222D01E215956914220D08F
:100910002A2159560324914210D0134B19781A708A
:100920008171BFF35F8F00220B4B1A608CF310882C
:1009300070BDAB680D4C5C50EFE7002461000919F5
:1009400089005B18FF21997109499980E5E7012425
:10095000F4E70224F2E7C046240100D0FC0F002097
:10096000AAAA000000ED00E02D280020C10100101F
:1009700001BDFFFF10B5084B084C82B00100009389
:10098000002205232000FFF7BDFD002801DB1F2307
:10099000181A02B010BDC0462C5E0010312800208D
:1009A000024B9C466144890001607047400000345E
:1009B00070B5114C114DAC420FD2FF262368002BAD
:1009C0000CD0FFF7E3FD01002000FFF7E9FFA68050
:1009D000BFF35F8F0834AC42F0D370BDFFF7D6FD94
:1009E00001002000FFF7DCFF2671BFF35F8F0834A2
:1009F000AC42E3D3F1E7C0462016002028160020C1
:100A000010B50400FFF7C2FD01002000FFF7C8FF8A
:100A1000FF232371BFF35F8F10BDC04610B50400E4
:100A20000120FFF7BFFD034BC3189B002360BFF3FA
:100A30005F8F10BD40000034034B9C466144890029
:100A40000160BFF35F8F7047400000340A4B1968A4
:100A5000EFF3108072B60A68002AFCD0BFF35F8FF4
:100A60001B68BFF35F8F00221A6080F3108840BFBD
:100A7000002000217047C0460C280020F0B5DE465B
:100A800057464E464546E0B587B0EFF3058303224F
:100A900001251A40954091008846A946B34B039220
:100AA0005C58B34B1D60B34B04934B46B248436351
:100AB0000823E55E002D37DAA3881BB2002B00DB8C
:100AC000ADE0A379002B00D0EEE00823E05E002823
:100AD00020DB430062691B18DB00D3189E68DD68C9
:100AE000731C00D111E1A44801004144826A0B69E2
:100AF000B71A9B1A9F4215D30123026A03988340B9
:100B00001A420FD09C4800F0B5FB8D4202DCCCD1DC
:100B10008642CAD940BF07B0F0BCBB46B246A94620
:100B2000A046F0BD0E61EDE762696B0092465B196D
:100B3000DB009A4453469E68DF6800F09BFB8F42BF
:100B4000BADC00D103E1002F00DAE8E05246534658
:100B500052691B699346049A934200D1D9E05246E8
:100B60000821605E5288000459461043984700905F
:100B700001910099019A0B001000134300D1CEE0BF
:100B800013000A00B61A9F41002806DB7A4800F0DD
:100B900071FB009E019F36184F4153469E60DF60F7
:100BA00000229A5E002A00DA86E7530099186069ED
:100BB000C900411802938B68C9689B46B94200DDA1
:100BC0007AE702D1B34200D976E708239C46A444D1
:100BD000059565462281A446029B2C0006E0530041
:100BE0009918C90041188D68C968AB469B18DB008D
:100BF000C318B94206DC00D1B3E01C000023E25E5A
:100C0000002AECDA230064469C4653461A80634669
:100C1000059D1D80A3881BB2002B00DA51E72269D5
:100C2000EFF3108172B61368002BFCD0BFF35F8F17
:100C30000123A7885B42A3803FB22369BFF35F8F84
:100C400000221A6081F31088002F00DA39E72300B0
:100C5000083322009A4666697B00DB19DB00F31833
:100C6000996850468C460824115FDD68002910DB26
:100C7000029306E0AB4244D00023E15E200000294D
:100C800006DB4C006418E4003419E368AB42F1DD84
:100C9000029B078000201F5E1980002FDCDA140001
:100CA000A379002B00D110E70023A37126000823AD
:100CB000E15E08364B1C00D12CE70800A2466569AE
:100CC00002E03E004B1C1AD04B005B18DB00EF1813
:100CD0000A008C46E95E7B881BB2002BF1DA012307
:100CE0005B42DC17BB60FC60824205D0534631801A
:100CF0001B893B8053461A8160464B1CE4D1544605
:100D0000E5E6A3686345B7D9C2E76B1C00D0EAE605
:100D1000F8E65B4658461B69984700281BD15346A6
:100D20001B8822692381EFF3108372B611680029B2
:100D3000FCD0BFF35F8F514662880A8022696580CC
:100D4000BFF35F8F0021116083F31088B4E6864201
:100D500000D8F8E6B0E65B461A685B68009201933B
:100D600007E7B34500D848E74CE7C046F027002026
:100D70003C7005407D0A00100040054070B52E4CC7
:100D80002569002D04D00A212C48FFF709FE70BD0B
:100D90002B4E0321300000F063FAE660FFF7F6FB0C
:100DA000284B03229C46D02322701B061B6801217E
:100DB0006370254B6044A3600F23800020610220F4
:100DC000638063694942A1801980023119864731E5
:100DD0001D83585218315A5275325C399952183263
:100DE0000131995218320131995218320131995218
:100DF000083518329D520231183299521832013199
:100E000099521832013199521832013199521832DF
:100E1000013199521832013199520C4B0C49DC6066
:100E200001303562FFF728FC01210320FFF7ECFBBE
:100E3000084B1D60A7E7C046441000200C28002086
:100E40000040054040000034FFFF1000F027002064
:100E50007D0A0010386005400048704744100020AB
:100E6000F8B51F0008AB1B7804001600002B08D152
:100E700000F008FA32003B00121A8B41002B00DA16
:100E800052E02269EFF3108072B61368002BFCD099
:100E9000BFF35F8F0223E15E63694A005218D200FC
:100EA0009B182269002936DB1D886580BFF35F8FA0
:100EB0000025156080F31088069A9E60DF601A6135
:100EC000079A5A615A8801325204520C101C002AA7
:100ED0001FD082B25880080410432669EFF31087B0
:100EE00072B63268002AFCD0BFF35F8FA2881A80E6
:100EF000A1802369BFF35F8F00221A6087F31088F7
:100F00000A4923788C4601329A40E36863441A60A8
:100F1000F8BD0120DDE7BFF35F8F0023136080F38E
:100F2000108801204042F3E70020F1E73C20000058
:100F300070B501000469EFF3108C72B620680028C8
:100F4000FCD0BFF35F8F02200D5E4C696800401932
:100F5000C00024180869002D36DB26884E80BFF3B8
:100F60005F8F002606608CF31088E3606388049826
:100F7000013320615B0405985B0CA26060611A1C60
:100F8000002B1FD093B22804628018430A69EFF344
:100F9000108C72B61368002BFCD0BFF35F8F8B8868
:100FA00023808D800B69BFF35F8F00221A608CF362
:100FB00010880B7801329A40CB6808498C4663440C
:100FC0001A6070BD0122DDE7BFF35F8F002303606D
:100FD0008CF3108801204042F3E7C0463C2000001B
:100FE00010B543890A1493421ADD53009B184269D5
:100FF000DB00D3180469EFF3108C72B62268002A64
:10100000FCD0BFF35F8F5A88090494B2090C8A425E
:1010100008D00369BFF35F8F00221A608CF3108839
:10102000002010BD8022120214435C80012302695B
:101030008371BFF35F8F002111608CF31088044926
:1010400002788C469340C268012062441360E8E74E
:101050003C20000040787047F0B5C64600B582B02D
:10106000040000F00FF9FA2206000F002000002310
:101070000021920000F002FD8019794104000D1E4C
:1010800002DA01242E4D644206267642F7173619FD
:101090006F41AF4214D811D000F0F4F832003B0099
:1010A000121A8B41002B15DC002B46D020002900A2
:1010B00000F026F902B080BCB846F0BDA642EBD9DC
:1010C0000026002700F0DEF832003B00121A8B41A8
:1010D000002BE9DD00F0D6F832003B00121A8B41FC
:1010E000002B0ADB00230193164B320000931648B5
:1010F0003B00FFF71DFF0130D8D000233900B04678
:101100009C46124A1248536A994204D8966A464548
:10111000CCD29942CAD10668EFF3108772B6336811
:10112000002BFCD0BFF35F8F0368BFF35F8F664671
:101130001E6087F3108820BFE5E7002AB6D0C9E714
:10114000FFFFFF7F4D0A00104410002000400540C3
:101150000C280020F0B557464E46DE464546E0B521
:1011600006000F0085B0EFF3058399468B46002BF0
:1011700012D0384900204B6ABB4206D38A6ADB1B77
:10118000591E8B41B2424041184305B0F0BCBB46EA
:10119000B246A946A046F0BD2F4B9A46DB6898465A
:1011A00053461B784046039300F064F84246039B85
:1011B000040004339B009B580D001B1A39003000BB
:1011C000001BA941894510DC0DD020BF214A002019
:1011D000536A5B45D9D3926ADB1B591E8B41B242DD
:1011E00040411843D1E78342EFD900F04BF8320079
:1011F0003B00121A8B41002B1ADB00230193174B83
:101200003200009350463B00FFF792FE011E0FDDB7
:10121000104B5A6A5A451BD39B6AB34216D35046A9
:10122000FFF7DEFE0B4A0020536A5B45ADD3D2E7E1
:10123000084A0020536A5B45A7D30020926ADB1B53
:10124000B24240415A1E934118439EE75A45E6D1A7
:1012500020BFE4E700400540441000204D0A001084
:1012600010B5024A0248FFF72BF910BD485E001086
:10127000782300200300416A0A00986A596A8A426A
:10128000FAD17047034B596A0A00986A596A914229
:10129000FAD170470040054070B504000D00174AB0
:1012A000536A1900966A536A8B42FAD130001900CA
:1012B00024184D41AB4216D813D0104B2A005B6A5C
:1012C0009D4203D90D494B6A9342FCD3934207D107
:1012D0000A4A02E0516A994202D1916AA142F9D3C5
:1012E00070BDA642E9D9054B5B6A1C005A1CEFD0C1
:1012F000012201246442E5175242E3E70040054021
:10130000064A536A9942FCD807D1044B02E05A6A54
:10131000914202D19A6A9042F9D870470040054044
:10132000F8B5DE464E4657464546E0B58B460500C5
:101330000A991800160000F013FB0A9B6C001F02AC
:10134000324B64199C46A4006444636881469F4202
:1013500000D967602B1FDBB29846012B30D9C02320
:1013600080229B01E31812011A60294BAD005959E4
:101370009A4600291BD17301E026226853401E4083
:10138000802342465B01E3181E60012A30D9802386
:1013900080229B01E31812011A6053464A46676097
:1013A0005A51F0BCBB46B246A946A046F8BD5869A2
:1013B00000F0D6FA013043001B18033BFDD2DAE7F8
:1013C0005B46012BCBD1C02303229B01E3181A609B
:1013D000023AA3681A42FCD07301E0262268AD00ED
:1013E00053401E4080230A4A5B019246E3181E6068
:1013F0005A462168514003220A401A6001225B4686
:101400009A40A3681A42FCD0C1E7C0460080004061
:101410007C230020F0B546464F46D646C0B51F0097
:10142000344B44009C462418A400644463688846F6
:101430001600FF2B02D880235B006360031FDBB222
:101440009A46012B30D9C02380229B01E318120158
:101450001A60294B85005959994600291BD17301FF
:10146000E026226853401E40802352465B01E31869
:101470001E60012A30D9802380229B01E3181201CB
:101480001A6080235B0063604B465F51E0BCBA4644
:10149000B146A846F0BD586900F062FA0130430039
:1014A0001B18033BFDD2DAE74346012BCBD1C02307
:1014B00003229B01E3181A60023AA3681A42FCD087
:1014C0007301E0262268850053401E4080230A4AAB
:1014D0005B019146E3181E60424621685140032299
:1014E0000A401A60012342469340A2681342FCD08E
:1014F000C1E7C046008000407C230020014B8000F3
:10150000C05870477C230020F8B5040021481E0015
:1015100017000D0000F024FA0100380000F020FA56
:10152000069B36041B031E432368002B20DB1A4B4B
:101530001A49E3185A1E93418022920194465B4255
:101540001B0B174A1B0363441360164A13601F00EA
:101550000A689743FBD1144B2560E2182123A06051
:1015600013602368002BFCDA0823E6601360F8BDE3
:101570003F2322681340AB42D9D1A3681B051B0D42
:101580008342D4D1EE22E368D2021340B342CED1DB
:10159000EDE7C046001BB7000040FDBF08C000409B
:1015A00000E0004000F000400430000010B580244E
:1015B0001C4BE4051C6000281AD001231A4C184368
:1015C0001A4BDC611A4C44401C62596298628021BB
:1015D000144BC9051960174817490860E021C90470
:1015E0001960002A07D18022144B12061A6010BD20
:1015F0000E4BD861EBE753019B1A9B009A1880238E
:1016000012015B049A4209D213000D490B60074B8B
:101610005A608022094BD2051A60E8E7094B1A008C
:10162000F3E7C04600B00540D3C007B000800540D6
:101630002D3FF84FFCFF01000820014000A00540AD
:10164000E0270020FFFFFF008023024A9B000B439E
:10165000D362704700800540002310B50100988ACE
:101660001B8B984710BDC046162310B50100188883
:1016700002331B88984710BDF8B54746CE4680B563
:101680000F1E18D0142399460433040000250126A8
:1016900098464B461888434621681B88984701C4E2
:1016A000431E984101350640AF42F2D13000C0BC24
:1016B000B946B046F8BD0126F8E7C046002370B52C
:1016C00004000D00988A05491B8B984703000020F1
:1016D000002C01DB0130A040290098475542000052
:1016E000AA23064A1B0113608D235B00D3600449C3
:1016F000044B19605368002BFCDA7047004002402D
:1017000000B0FA00006002407047C04610B50148C2
:10171000FEF7BEFE6C5E001070B5074D074EB54279
:1017200009D20024013E761BB60808CD9847230055
:101730000134B342F9D170BD185D0010545D001042
:10174000054B064A06491A60064A074B1A60100004
:101750000B689843FBD1704700E00040BFCDFBFE13
:1017600008C00040FE7F3C0000F00040044BDB6CF2
:10177000002B03D18022034BD2021A607047C0466F
:10178000000011504C201150044A054B1A60054AC4
:101790001368DB018033FBD17047C046FFFFFF01B8
:1017A00000F0004008C000404022034B9A675A678F
:1017B0001A67DA667047C04600F0014010B5FEF7C0
:1017C00003FF10BDF8B52749274C284D641AA61011
:1017D0003200302E00D930222800920000F0BEF9ED
:1017E000BC2C3BD830202F232C196407204A801BA7
:1017F000E40F9B1B052B16D93700002C02D0B30039
:10180000771CEA50001B33199B004108EB18C900F4
:10181000C9181A605A6008339942FAD10123034269
:101820001CD09843C619B300EA50731C2F2E15D054
:101830009B00EA50B31C2E2E10D09B00EA50F31CE4
:101840002D2E0BD09B00EA50331D2C2E06D09B0072
:10185000EA50731D2B2E01D09B00EA50054B9D6072
:10186000F8BDC04600010010C001001000000020BB
:10187000C101001000ED00E0002310B5294C82B03A
:10188000A367FFF72DFF0122274B1A60636C012B22
:10189000FCD10322254B1A60224A936B012BFCD109
:1018A000013300930121224A22480433FFF72CFE22
:1018B000052301210093204A2048FFF725FE00223E
:1018C000022104201E4BFFF7A5FD00220121052067
:1018D0001C4BFFF79FFD0022002107201A4BFFF74A
:1018E00099FD002200210820174BFFF793FD80236C
:1018F000DB000093002200210920134BFFF710FDAD
:101900000022104B00210620FFF784FD0420FFF782
:10191000F5FD0E4900F024F801000020FFF794FEC9
:1019200002B010BD008000403CB0004030B000402C
:10193000002F685900800240008C864700C002409A
:10194000001BB70040597307006CDC0240420F00D7
:1019500001480421014B184760100020791600103F
:10196000114A936F9B0813D210665166002905D067
:10197000FFE7FFE7FFE7516F106F704704B50028DE
:1019800001D00020C04304F087F9002104BDC04607
:10199000F0B5146E556E576F166FFFF7E5FF1466BE
:1019A000556657671667F0BD000000D0132370B569
:1019B0001D78012D19D014DD1F48FFF755FE0600D4
:1019C0001E48FFF751FE1E4C80223100200000F01F
:1019D000C5F8022D2DD01B48FFF73EFE1A4B1860AC
:1019E00070BD1A4B164CA364F5E7184B144C2360DA
:1019F0006360A360E36023616361A361E3612362C9
:101A00006362A362E36223636363A363E3632364A8
:101A10006364A364E36423656365A365E365236688
:101A20006366A366E36623676367A367E367A364EC
:101A3000D1E7064BA364CEE75344000053460000B1
:101A4000B01700204C33000008280020511A001065
:101A500007B5604601880A0A0230DF2AFAD1C9B206
:101A6000820804D3028840880004104300E0006824
:101A7000014A5050039007BDB01700205143434323
:101A8000C9188C46110C83B24B4310B4040C61434B
:101A900092B280B2504362431C041B0C001910BC6C
:101AA00059411304120CC0185141614470470000A1
:101AB000132310B512481C78FFF7D6FD0100012C46
:101AC0000AD003DD80220F4800F048F80E48FFF7E7
:101AD000C3FD0E4B186010BD0A4C5422200000F0CC
:101AE0003DF80B4B6365A365E36523666366A366F8
:101AF000E36623676367A367E3672362E361E5E760
:101B000053460000B01800204C3300000828002085
:101B1000151B001007B5604601880A0A0230DF2A4B
:101B2000FAD1C9B2820804D3028840880004104365
:101B300000E00068014A5050039007BDB018002033
:101B400001480421014B184770100020791600103D
:101B5000014B1B681847000070100020014B5B68A8
:101B6000184700007010002010B5002800D110BDEB
:101B700000F0C2F9FBE7C04610B5094A030014683B
:101B800084B0002C08D0012200910648524203A9DB
:101B9000A047012004B010BD00F0F8F90020F9E7DB
:101BA000DC270020691B001000BEFDE7094A030086
:101BB0001068002805D00849C3188B4207D8136065
:101BC000704706480449C31810608B42F7D90120BA
:101BD0004042F5E7D82300200000042034280020EC
:101BE000030010B508001100002B05D1044B1A6842
:101BF0005B6800F023F910BD01204042FBE7C046BE
:101C0000585F00100300013B10B508001400012BC1
:101C100006D801230022210000F092F8200010BD18
:101C200001204042FBE7C046012040427047C046C9
:101C3000012040427047C046012040427047C046E4
:101C40000300022200209A424041704710B5FFF77E
:101C5000ABFFC04670B5FFF75FFD074D074EB542BD
:101C600009D20024013E761BB60808CD9847230010
:101C70000134B342F9D170BD545D0010605D0010B5
:101C8000030010B5080011001B68984710BDC0463E
:101C9000F0B5C64600B5437D07000C001600002BCA
:101CA00046D0002A17DD0B780A2B24D00023984653
:101CB000012E13D001252900635C01350A2B26D0A3
:101CC000B542F8D1464509DCA419013C23780D3B07
:101CD0005A4253413B7580BCB846F0BD4346E018BC
:101CE000A419F11A013C3B68984723780D3B5A42EE
:101CF00053413B75EFE7037D002BD7D102210F48FD
:101D00003B689847012EDFD001239846D2E7631E37
:101D10005B5C0D2BD4D0884504DA4346C91AE01821
:101D20003B689847022105483B68A8469847C7E7A3
:101D30000368110020009847CDE7C046B45F00104B
:101D4000F0B54546DE464E465746E0B583B091466F
:101D50001C0080460D00FFF795FA0023304A121848
:101D60004B41002B02DA01222E4B52422E49080031
:101D70008A4603F0B1FF07006B1C03D1404602F016
:101D8000F7FC0500002C27D0284E294B1C68002C9E
:101D900018D04B46002B21D1264B994602E02469EE
:101DA000002C0FD02368002BF9D04B461B68002B6A
:101DB00001D09C42F3D120002A004146B04724695B
:101DC000002CEFD1002F26D1280003B0F0BCBB4679
:101DD000B246A946A046F0BD174ED6E7154B994628
:101DE0000A239B4602E02469002CEBD02368002BD9
:101DF000F9D04B461B68002B01D0A342F3D12A0037
:101E000041462000B0476B465A462000DA71D91D82
:101E10000122B047E7E7504603F026FFD4E7C0466B
:101E200040420F00FFFFFF7F20160020911C001092
:101E3000CC230020D4230020811C0010F8B5574685
:101E40004E464546DE4698461A4BE0B59B461A4B31
:101E500007000E0091469A46184D5B461C68002C00
:101E600003D115E02469002C12D02B68002B01D07F
:101E7000A342F7D1A368002BF4D031003800984773
:101E80000028EFDDF0BCBB46B246A946A046F8BD2F
:101E900053465B6A984508D85246926A4A4502D32F
:101EA00002204042EEE79845FAD101200021FFF7D9
:101EB000F3F9D2E7CC23002000400540D4230020D2
:101EC0000A4A1368002B05D10CE01A001B69103276
:101ED000002B07D08342F8D1002902D11869106085
:101EE000196170470029FCD01060FAE7CC2300206C
:101EF00010B500F07FFA10BDF0B5CE46474680B56C
:101F000083B06B460600DD1D2870FFF7BBF9002388
:101F1000194A12184B41002B02DA0122174B524288
:101F200017490800884603F0D7FE164B81461C6807
:101F3000002C14D0144F02E02469002C0FD0236829
:101F4000002BF9D03B68002B01D09C42F4D120003B
:101F500001222900FFF79CFE2469002CEFD14B469B
:101F6000002B05D1300003B0C0BCB946B046F0BD6F
:101F7000404603F079FEF5E740420F00FFFFFF7F88
:101F800020160020CC230020D423002070B50400AC
:101F900002F0EEFB01230100050001222000FFF703
:101FA000CFFE084B1C68002C06D06368002B05D0C0
:101FB00098472469002CF8D1280070BD2469002CB2
:101FC000F3D1F9E7CC2300207047C0460022014B33
:101FD0001A7070472E2800204B790020FF2B0BD160
:101FE0008B79002B08D1CB79012B05D1082A03D995
:101FF000024B8A7809301A707047C0462E2800209C
:102000000120704710B5012913D112495379107975
:1020100009781B0203430020994200D010BD537879
:10202000012B08D0022BF9D1642200210020FFF7F8
:10203000BDFA0120F2E7D37891781B021943480AD0
:10204000DB0501D4012040427F238A05D20F1940CD
:10205000FFF734FB2E2800200048704780600010F6
:1020600070B5050014000120012909D15378002022
:10207000012B05D1637912791B021343072B00D082
:1020800070BD21002800024A9F3301F055FAF7E79E
:10209000D85F00100123037000487047B85F00103C
:1020A0004B780A781B0213438A7810B512041A433E
:1020B000CB781B0613439622D200934200D010BD6A
:1020C0000022012011004042FFF7F8FA024B18608D
:1020D000024B19607047C0466C230020702300201B
:1020E00010B5024B1878FEF7ADFA10BD2F2800206E
:1020F000154B70B51A68002A22D0EFF3108172B622
:1021000010680028FCD0BFF35F8F00200F4A596091
:1021100010701B68BFF35F8F186081F31088002474
:1021200000250B4E3078FEF781FA002804D10024F8
:1021300000252900200070BD3078FEF783FAF8E70B
:10214000FA240025A400ECE7E8270020302800202E
:102150002F28002070B5040000200E0001F00AFBBB
:10216000002834D0002001F01BFB00282FD0FFF7FF
:1021700089F80023174A12184B41002B16DB164D25
:10218000280003F0A9FD002821D0002001F0F2FA78
:1021900000280FD101200021404200F001FD03245E
:1021A0006442280003F060FD200070BD01220B4B4B
:1021B0005242E4E7002001F0F3FA0028EAD02100BF
:1021C0003200002001F0F6FA041EEAD1E7E703240A
:1021D0006442E9E740420F0010280020FFFFFF7F24
:1021E00010B5FFF74FF800230D4A12184B41002B92
:1021F00002DA01220B4B52420B4C200003F06CFD23
:1022000000280CD001200021404200F0C9FC002031
:1022100001F014FB0028F5D1200003F025FD10BDCE
:1022200040420F00FFFFFF7F10280020F8B5DE4678
:10223000574680B505000C00FFF724F80023364A06
:1022400012184B41002B02DA0122344B524234491E
:1022500008008A4603F040FD002803D1C0BCBB46FD
:10226000B246F8BD002001F085FA00284AD00026C9
:10227000002C43DD2B4B9B4614E0A919002001F0F4
:1022800017FB070001200021404200F089FC0020DC
:1022900001F0D4FAFEF7F6FF224BF61918605960E8
:1022A000B4422BDD002001F023FBA71B0200B84243
:1022B00000DD3A00002AE0D101200021404200F078
:1022C0006FFC002001F0BAFA002001F053FA002858
:1022D00014D0002001F00CFB0028E1D1FEF7D2FF62
:1022E0005B460F001A685B68002184460E4812188E
:1022F0004B419F4202D8D3D19445D1D9504603F0E7
:10230000B3FCABE700200021064B18605960504633
:1023100003F0AAFCA2E7C04640420F00FFFFFF7F88
:1023200010280020A817002020A1070030B52A4C53
:1023300085B00021200003F0B7FC00281CD1274BFA
:102340001A68002A16D0EFF3108172B610680028C0
:10235000FCD0BFF35F8F01242148596002781B68CD
:10236000D2B20470BFF35F8F0020186081F3108831
:10237000002A17D005B030BD01200021404200F0F6
:102380000FFC002001F00CFA0500200003F06CFCAB
:10239000002DEFD0134B1B68002BEBD0124A1068B6
:1023A0009847E7E7FEF758FD0400FEF76BFFFA22B7
:1023B0000023920012184B41002B02DA01220B4B32
:1023C000524201210291002101910949200000910E
:1023D000FEF746FDCEE7C04610280020E827002083
:1023E000302800206C23002070230020FFFFFF7F97
:1023F000F1200010D02310B51B0684B01C68FEF736
:102400002BFDFEF727FEA04202D0002004B010BD35
:10241000294B002100201B7801F05EFD274803684E
:10242000002B45D00120FEF7A5FAFF23244C2549B7
:1024300020701840FEF720F920780121FEF7E4F81B
:102440000520FEF707F9002824D1082200211E48A4
:10245000FFF77EFBFEF700FD0400FEF713FFFA22F4
:102460000023920012184B41002B02DA0122174B75
:102470005242012102910021019115492000009151
:10248000FEF7EEFC0028C0DB12480121FFF718FD23
:102490000120BBE70120FEF785F80B4B0100180077
:1024A000FEF7CAFA002205200B49FEF70FF9EBE709
:1024B000FEF7A6FAB6E7C0463462001010280020E6
:1024C0002F2800202D230010E8270020FFFFFF7F8A
:1024D000F120001080100020E1200010004870471B
:1024E0001C61001000487047C860001010B504005F
:1024F00017480378002B20D0002C06D1154B164826
:102500004380063BFF3B038010BD052C1DD8134BB9
:10251000A400E05812490123013804E001330A8085
:102520000231142B0DD0C25C002AF7D1C022DBB2DD
:102530005B00920008481343E5E7112100F01AF808
:10254000DAE7CA2304489B00DDE70020DCE7C04649
:102550001828002009040000A4230020B060001007
:10256000A623002010B5024800F0D8F810BDC046E0
:102570000028002030B54B1E012900D1A7E0664A93
:1025800011780D092C0030349F2900D9A2E0047085
:10259000012B00D1BEE00F21147821400C00303413
:1025A000092900D998E04470022B00D1B2E0547898
:1025B0002509290030319F2C00D990E08170032B30
:1025C00000D1A7E00F2121400C003034092900D9A7
:1025D00087E0C470042B00D19CE094782509290081
:1025E00030319F2C00D97FE00171052B00D191E0A3
:1025F0000F2121400C003034092900D976E04471C4
:10260000062B00D186E0D4782509290030319F2C93
:1026100000D96EE08171072B00D17BE00F212140B2
:102620000C003034092966D8C471082B00D171E040
:1026300014792509290030319F2C5FD80172092BAC
:1026400068D00F2121400C003034092958D8447239
:102650000A2B5FD054792509290030319F2C52D89C
:1026600081720B2B56D00F2121400C0030340929E8
:102670004BD8C4720C2B4DD09479250929003031E8
:102680009F2C00D9073101730D2B43D00F2121401E
:102690000C003034092901D937310C0044730E2B5A
:1026A00038D0D1790C09220030329F2900D9073265
:1026B00082730F2B2ED00F220A4011003731092AC6
:1026C00001D830321100C173102B23D010300023F9
:1026D000037030BD07345AE737310C0063E7073128
:1026E0006CE737310C0074E707317DE737310C00B8
:1026F00085E707318EE737310C0095E707319DE715
:1027000037310C00A3E70731AAE737310C00C47258
:102710000C2BB1D1C018DAE70028002010B588B022
:1027200004000D2200216846FFF712FA0D22002155
:1027300004A8FFF70DFA4B236A466846137004A9F4
:102740000D2203F089FA1521082220006944FFF7C1
:1027500005FA08B010BDC046F8B500F047F90C23E3
:10276000194DFF22AB6705201849FDF7AFFF184C44
:10277000402200212000FFF7EBF94027002301262B
:102780002121144A66702783A260136063545F316D
:10279000618445396354104A10496360E2602787B9
:1027A000A1620B606362E26203F0AEFA80239B05D4
:1027B0002E64EB6490230A4A0120EA508022094BE0
:1027C0005202DA64F8BDC0460000115059050020DD
:1027D000DC230020840010500001105080001050B5
:1027E00010D001000020115010B501210520FDF787
:1027F0000BFF10BD10B500220021024800F016F9B1
:1028000010BDC046FC230020044B1970002904D0E1
:1028100080219023024A8902D15070472A28002043
:10282000002011500B785B0602D14B78052B00D0AD
:1028300070478A78014B1A60FAE7C04600001150D1
:10284000F0B5C646C87800B58007830F1800012B85
:1028500060D08F780A794B797F213940FC091B02BF
:102860004E001343334D32195201AA1897700127B5
:102870006740577000275B055B0DD7701383D076D8
:10288000B846CA00012C32D02B4FBC468F0162449F
:10289000BC46AC446746BA6047461760002932D050
:1028A000264AC90090466246414451603F223F3368
:1028B0009343022837D0224937190A687F01D31879
:1028C0000B602049EF19FA608B422ED83619760139
:1028D000AD19EB7E1C499B064A4013438022120629
:1028E00013436A681360012080BCB846F0BD174FDF
:1028F000BC468F016244BC46AC446746BA62474658
:102900001760002908D1002364012C196360104B63
:10291000E360E8E70020E7E70B4AC900904662461B
:1029200041445162C2E75B00C5E7FEF7EFFEFA687B
:10293000CCE7C046DC230020840010500400105077
:10294000E4270020FF0F10500000105080001050AE
:102950000001105010B503F0D7F910BD10B57F205D
:102960000C0020404000E409110000191A00034B3C
:102970004001C01800F05AF8012010BDDC230020EF
:102980007F23180000B5084083B00B4204D14B42AE
:102990004B41084A013393668022C9094000064B27
:1029A000401840010021C018120103F0A5F903B03E
:1029B00000BDC04600201150DC2300207F22130000
:1029C00010B50B400A4200D110BDC9095B005B186D
:1029D00004485B01C018002300220349C37003F0C0
:1029E0008BF9F1E7DC230020FFF7FFFF80220A4B81
:1029F000520410B51A60094B09491A6010000B689F
:102A00009843FBD18022002152010648FFF7A0F82D
:102A10000922054B5A6710BD00E0004000F000405D
:102A200008C000400000105000001150002310B5F5
:102A3000C3820133828283760161040003F024F9AA
:102A4000002804D080219023074A8902D150200019
:102A500003F012F9002802D00123237710BD2000D3
:102A600003F042F9FAE7C046002011507047C04613
:102A70007047C04600207047002070477047C0462E
:102A80007047C0467047C0467047C046024B5878F2
:102A9000431E9841C0B27047841E0020024B187834
:102AA0004007C00F7047C046841E0020F0B5D646D0
:102AB0004F464646C0B52F4B07009A461B780E007E
:102AC000FF2B50D1002941D0002154222A48FFF782
:102AD0003FF80022294C2A4B20001A70FDF790FF86
:102AE000284B1C60284C2000143CFDF797FF200069
:102AF00001F0FAFD254B264D1C60264B002B04D01F
:102B00002800FFF7C7FA244B18602449002489469F
:102B10002149002388462A7810E043461B68620159
:102B20009B18002B12D05B68002B0FD098472A7897
:102B30000134E4B2511C2300A14209DBA242ECD8CB
:102B40009B1A5B014B445B68002BEFD100200BE02C
:102B50005346310038001F70FFF7FEFD0028F5D006
:102B60003800FFF741FE0120E0BCBA46B146A84656
:102B7000F0BDC046B4100020841E00207C1E002042
:102B80002B280020D81E0020AC100020DC1E0020C6
:102B90002928002095200010D41C0020D8610010A6
:102BA000F0B5DE4657464E464546E0B5C84B91B0B7
:102BB00002931B78FF2B00D13EE1C64BC64E9B46CD
:102BC0005F46C64B0DAC0193C54B009335686A69EF
:102BD000EFF3108172B61368002BFCD0BFF35F8F48
:102BE000A9612800210001F0AFFB6A69AB69BFF35E
:102BF0005F8F0021116083F31088002800D11BE152
:102C00006378082BE2D89B00FB589F466368002B33
:102C1000DCD0A0689847D9E77F222179AF4D0A40E0
:102C20005300EB189846C8098044404601233030D1
:102C300005799D430571057903339D430571002A8C
:102C400000D100E14346A74A1B7D1278934200D38E
:102C5000EFE0A54A5B011568ED18002D00D1EBE00F
:102C6000A36862792078AD69A847AFE79F4A1378D7
:102C7000002B00D1E0E01378013BDBB21370137836
:102C8000002BA3D10122954D01212B780420134361
:102C90002B703423EA5C8A43EA54EA5C8243EA54A8
:102CA0000133EA5C8A43EA54EA5C8243EA542378BB
:102CB00000209B4600F09EFC602223791A40602A87
:102CC00000D1EFE0402A00D1F5E0DB06DB0E012B5E
:102CD00000D113E1022B00D1C7E0002B00D0E1E0CE
:102CE000202A00D11CE2002A00D0DBE06379092B06
:102CF00000D9D7E07E4A9B00D3589F46774D2B786A
:102D0000DB0700D462E7FFF7BFFE5FE7019BDB78DC
:102D1000DB0700D45AE76068FFF7AAFE56E76F4D5D
:102D20002B78DB0700D451E728780007C00FFFF7A6
:102D3000A9FE4BE723786A4999468B46694B6A4955
:102D400098468A4639001A7847460023B04600253F
:102D50004E46894610E053461B686A019B18002BBB
:102D600000D176E0DB68300098473A780135EDB263
:102D7000511C2B008D4244DC9542ECD39B1A5B0125
:102D80005B44EFE7237858499946564B8A46984664
:102D90003100BB464E461A78002500234746894637
:102DA0000FE053461B686A019B18002B55D0DB6867
:102DB000300098473A780135EDB2511C2B008D4216
:102DC00007DC9542EDD39B1A009A5B01944663445D
:102DD000EDE7019D542200212800FEF7B9FE1022E4
:102DE000FF214448FEF7B4FE28002022FF211430C2
:102DF0004E465F46FEF7ACFE00F0F2FBFFF740FEEA
:102E0000E4E6364D542200212800FEF7A1FE1022F0
:102E1000FF21281DFEF79CFE28002022FF211430F0
:102E200046464F46FEF794FE00F0DAFB2379AB707E
:102E3000CCE6501C984213DA11B0F0BCBB46B24647
:102E4000A946A046F0BDA3686279207800F0E6FBB1
:102E5000BCE646464F46214DE6E74E465F46CBE789
:102E60001F4D9B1A5B015D19FAE67023217A0B4214
:102E700018D1C80982460F330B405B0098461948A9
:102E8000EB1853441B7D00789946834266D216485E
:102E90005B01006881469944002A00D15FE14B46FE
:102EA000002B68D120780021FFF76AFD802120786F
:102EB000FFF766FD8AE6104800F09CFB01215846AA
:102EC0000EAAFFF7CDF8002800D07FE6EAE7C0465B
:102ED000B410002030610010DC1E0020841E002091
:102EE000D861001029280020D41C00202B280020A5
:102EF00054610010881E002061200010237A0F2BDF
:102F0000D0D8CF4AEB181B791578AB423ED3691C59
:102F10009942C7DB5D1BCB4B6D01ED18686900F072
:102F200069FB012158466B690EAA9847002800D01A
:102F30004CE66022150023791D401A42B2D1637914
:102F40000A3B012BAED800F055FB63790A2B00D168
:102F500099E158460EA900F0D9FA37E6431C4B45D3
:102F600000DAF7E04B461B1A5B019946B5488144ED
:102F7000002A00D1F3E04B46586900F03BFB4B467A
:102F8000012158465B690EAA98479CE7AE4A5B014F
:102F90001568ED18002DC1D184E7A37999466B78A7
:102FA0009945D6D06B78002B00D033E14B466B703F
:102FB000002B00D12BE148460138C0B2FFF792FA4E
:102FC000002800D17EE143780793022B00D079E1FD
:102FD0000122C179B1468B11491113400A403021B9
:102FE00012015B0113432A78A8468A4313432B70CE
:102FF00009239A4682445646BA46C37882781B0211
:103000001343C31805938E4B04938E4B08938E4B3A
:1030100009938E4B0A93059BB34200D855E1737810
:1030200001220B2B03D13378F278F6187378042B36
:1030300000D044E1059B00279B1B9BB20693049B99
:103040000B921D78002303931BE0099A7B011568FE
:10305000ED18002D00D132E1310058462B69069A57
:1030600098478446082803D9069A824200D313E180
:10307000049B01371D78FFB26B1C03979F4200DD54
:103080001DE1BD42E1D8039B5D1B089B6D019C4681
:103090006544E1E76B780CAA0232137058460123AD
:1030A0000EA900F049FA91E5E3881A0AD8B20F2A6E
:1030B00000D9F7E666499300CB589F460EA800F06A
:1030C0009FFA5846A179FFF795FB02222B7813430C
:1030D0002B707BE5E388012B00D0E3E608222B78F8
:1030E000584693430EA92B7000F010FA6EE50220AB
:1030F00029780CAB9A1C8B068908DB0F01400B4327
:103100001380584602230EA900F016FA5EE5E38804
:10311000012B00D0C6E608222B7813432B7018E74A
:10312000237A0F2B00D9BDE6EB181D79444B1B7891
:103130009D4228D2444B6D011B685D19002D00D1C2
:10314000B0E6686900F056FA012158466B690EAA8C
:103150009847B8E6002A00D0A4E600239946627991
:103160000220130003928343012B15D0002A00D0C4
:1031700098E62B004344534430331B790CAA9B0739
:10318000DB0F0232BCE75A1CAA4200DA8AE6ED1ACB
:103190002C4B6D01ED18D4E7E388002B12D1029B74
:1031A0001878039B012B23D0FFF7EAFB434602214B
:1031B000EB18534430331A790A4301211A711A79F2
:1031C0000A431A714B46002B00D1FFE4586900F006
:1031D00011FA4B4601215B690EAA58469847002018
:1031E00000F008FA3523EB5CDB0700D5EEE4B0E62F
:1031F000FFF7E4FB43460221EB18534430331A79BE
:103200008A431A711A7903998A431A71DAE7FFF728
:1032100037FC9EE600215846FFF7F6FA5846FFF7BE
:1032200099FBAB78074903930491054B06499846EF
:103230001A780591002329001D008A461BE0C0462C
:1032400029280020D8610010D41C0020981E0020DE
:103250007C610010059B6A011B689B18002B4DD0F8
:10326000DB685846984743461A780135EDB2511C41
:103270002B008D422EDC9542ECD39B1A049A5B0105
:1032800094466344ECE70CAB9A1C584601230EA904
:10329000157000F051F999E40B9A012A4FD0002AD9
:1032A0003CD00023B07804E00133DBB20F719342CD
:1032B00034D2C118C9B241440D79FF2DF4D04E4625
:1032C0004546574600236B70ECE54E465746FFF7E0
:1032D000D5FB3EE65546542200212800FEF738FC77
:1032E0001022FF21281DFEF733FC28002022FF2199
:1032F0001430FEF72DFC039BAB7057E65546FAE7FA
:10330000FEF7AAFE021E00D1CCE5D37891781B020D
:103310000B4358460EA900F00FF9D4E565463B0073
:103320002A0031000A9800F07FFEAC46049B039A05
:103330001B7866440133934200DB6CE6BFE7174B12
:1033400029699942ADD1079AABE7FFF793FB021EBB
:1033500000D1A7E5584613780EA900F0EDF8B2E5C4
:103360002189FFF7C3F8021EF4D19BE5022A0FD092
:10337000FFF782FB021EC8D194E5FFF7AFF8021EEB
:1033800000D18FE5122358460EA900F0D5F89AE532
:10339000FFF7A8F8021EB8D184E5C046F139001045
:1033A000F8B557464E46DE4645460C00E0B51600D9
:1033B0001F00002A3CD0702398461E4B00259B46D8
:1033C0001D4B9A461AE05B461B78200099465346EF
:1033D000997800F0EBFD00281CD021004846FFF74B
:1033E0002FFA002816D0A378DA09012A19D00A9AF0
:1033F000013513702378E418B54219DA6378052B88
:1034000008D1E3789B079B0FBB4203D14246A378C8
:103410001A42D8D00020F0BCBB46B246A946A0460E
:10342000F8BD0B9A013513702378E418B542E5DB3B
:103430000120F0E7B4100020841E0020702270B537
:103440008B780C001A4201D0002070BD064B200082
:103450001D78064B997800F0A9FD0028F4D02100D2
:103460002800FFF7EDF9F0E7B4100020841E0020DB
:103470000B007F2010B51840DB0934334000044AAC
:10348000C018044B1168C01800F04CFD10BDC046B8
:10349000D81E0020841E00200B007F2010B518408D
:1034A000DB0934334000044AC018044B1168C018CB
:1034B00000F060FD10BDC046D81E0020841E002014
:1034C00070B57F240F480C4064000419CD096419BD
:1034D00030342079C00701D5002070BD0126257940
:1034E0000948354300782571FFF738FA0028F4D1F0
:1034F0000122237993432371237903329343237168
:10350000EAE7C046841E0020B410002070B5094CC4
:103510000600082220000D00FEF720FB002380217A
:10352000E360A3602B783000994300220023FFF76B
:10353000C7FF70BD641E0020F8B5CE4647469046D2
:10354000254E80B58146082230000D001F00FEF791
:1035500005FB4346B3600023F381EC79AB79240289
:103560001C43231CBC4200D93B1C9FB2B381002CDE
:103570000DD0002F17D04246002A2BD0402F1BD849
:103580009FB233787F2B1CD80021144A0FE0802192
:103590002B780022994348460023FFF791FFC0BCD7
:1035A000B946B046F8BD7F230022317899433B00ED
:1035B0004846FFF785FFF2E740239FB233787F2B21
:1035C000E2D9064C3A0041462000FEF7C7FA8021B6
:1035D0002200ECE70020E2E7641E0020241E002009
:1035E00010B5142200210248FEF7B2FA10BDC04601
:1035F000641E0020014B18617047C046641E002005
:1036000010B5054C010008222000FEF7A7FA0023A0
:10361000A360E36010BDC046641E002070B5384C46
:103620001D0023780600DA09C9098A4210D000205B
:10363000002D00D070BD21003000FFF7F3F82369A2
:10364000002B03D022000321300098470120F1E72E
:103650007F2B06D8A068002834D02A002949FEF71D
:103660007DFAE289A1685219E38892B24919E28190
:10367000A160934214D03F2D12D9A389981A051C3A
:1036800080B240282AD82078ADB27F2828D80021DF
:103690009A4232D01B4A2B003000FFF711FFC9E7D6
:1036A0002369002B05D02200022130009847002812
:1036B0000AD0802123780022994330000023FFF7AD
:1036C000FFFEB7E70020B5E700213000FFF758F90B
:1036D00030008021FFF754F90120ABE74025D2E705
:1036E0009A4207D0074C2A002000FEF737FA8021C3
:1036F0002200D0E780210022CDE70022CBE7C046A0
:10370000641E0020241E002070B50400FFF7BEF9DF
:10371000002800D170BDFFF7C1F90028FAD1C823F5
:103720006343124DEE18F1780029F3D010335D1980
:10373000280000F0F3FD3F28ECD90020F178FFF7D6
:1037400097FE0028E6D0280000F0E8FDF1783F2839
:1037500007D9074BE201D21800204023FFF7B0FE43
:10376000D8E70020FFF798FED4E7C0465C1D002094
:10377000D81C002010B50400FFF788F9002801D1FB
:10378000002010BDFFF78AF90028F9D1C822624352
:10379000024B01309B181B791840F2E75C1D00209A
:1037A000C82310B543430248181800F099FD10BD16
:1037B0006C1D0020F8B5C824802344431C4F1034EE
:1037C00005003C195B029A4200D31A4A200092B2CB
:1037D00000F008FE0600FFF759F9002801D130007B
:1037E000F8BDFFF75BF90028F9D1C8236B43FF1838
:1037F000FB78002BF3D0200000F090FD3F28EED99D
:103800000020F978FFF734FE0028E8D0200000F00F
:1038100085FDF9783F2807D9074BEA01D218002027
:103820004023FFF74DFEDAE70020FFF735FED6E72D
:103830005C1D0020FFFF0000D81C0020F8B504002C
:10384000FFF724F9002801D10020F8BDFFF726F981
:103850000028F9D1C82565432E00134F2436F619E8
:10386000300000F03DFD0028EED07F190020B9782F
:10387000FFF7FEFD0028E7D00C4DE4016519290093
:103880004022300000F0AEFDB978041E08D00300DD
:103890002A000020FFF714FE0028D5D02000D4E72E
:1038A0000020FFF7F9FDCFE75C1D0020181D002068
:1038B00070B5C82444430C4B0500E41880235B0218
:1038C0009A4200D3094A200092B200F051FE06004D
:1038D000200000F005FD3F2801D8300070BD280011
:1038E000FFF7ACFFF9E7C046801D0020FFFF000096
:1038F000C82310B543430248181800F00FFD10BD4F
:10390000801D0020F0B50025184C83B0C82200218E
:103910002000FEF71DF9164B21001D70FF23637177
:10392000E1235B02A360200008234022A373383107
:103930000095073B103000F09DFC2700012321007B
:1039400020002600402278310093B837243000F060
:1039500091FCC0363800FDF753F83000FDF750F801
:10396000E56127622663656303B0F0BD5C1D00203E
:10397000581D00200A4A116B136A00290CD0002B35
:1039800007D00023D3615363136300231362012024
:10399000704753631363FAE7002BF8D0D161F4E763
:1039A0005C1D002070B50F4C052200212000FEF7A1
:1039B000CFF80D4D2B78DA0707D50C4C9B070CD5AB
:1039C0000121200000F0B0FE70BD2000103000F09A
:1039D0008BFE2B78054C9B07F2D4200000F084FE70
:1039E000EEE7C0465C1D0020581D0020801D002011
:1039F000F0B54B79060083B0022B02D18B79022BF4
:103A000003D00025280003B0F0BD204FBB78002B69
:103A1000F7D18B7809253B700C780C196378242B2F
:103A200007D00CE02378E4185D196378ADB2242B3D
:103A300005D19542F6D90020FFF766FEE2E71A00AD
:103A4000052B15D0042AF6D163790A2BF3D1104B3C
:103A5000277801930133009330000223E119023AE1
:103A6000FFF79EFC0028CCD00E35ED19ADB2E2E791
:103A700021003000FFF7E2FC0028C2D0A3787B7061
:103A800023785D19E4186278ADB2DBE75C1D002095
:103A90005E1D0020F8B56023140012780500134065
:103AA0000020202B07D1304A6379277916781B0232
:103AB0003B439E4200D0F8BD6378222B1AD007D832
:103AC000202B34D0212BF6D101293ED00120F2E762
:103AD000232BF0D1012940D00329F7D1234B002B10
:103AE000F4D0E178A37809020020194300E000BF78
:103AF0000120E0E7012930D00329E7D101252E007C
:103B0000A378E478023924021C431471264024323D
:103B10001000714000F008FE154B002BD6D0620853
:103B2000002031002A4000E000BF0120C3E7012946
:103B30000BD00329CAD10F4B002BC7D0083200206D
:103B40001100FEF7ADFA0120B5E707232100280098
:103B5000094AFFF7F1FC0120ADE721002800FFF73B
:103B6000D5FC0120A7E7C0465C1D00200000000036
:103B700000000000A1200010641D0020F0B54F4699
:103B80004646D646C0B5364D8046EA780C001F0042
:103B90008A423CD0AB788B4210D00020E0BCBA46C1
:103BA000B146A846F0BD2F4B002B04D02E4800F0A4
:103BB000ADFB002851D00020FFF7A6FDAB78A34253
:103BC00001D00120EAE7294B002B02D0002000E0C1
:103BD00000BF0020FFF732FE0028F2D1244C200065
:103BE00000F07EFB0028ECD1002FEAD0BF06E8D120
:103BF000243C4046A178FFF73BFC0028E1D000239D
:103C000000224046A178FFF75BFC0120C6E79AB28C
:103C100010239A46174EAA443100504600F0A8FCE3
:103C2000154B002BBFD06B79FF2BBCD0002FBAD027
:103C3000F219914603E001364E45B4D06B793278E3
:103C40009A42F8D1504600F061FB0028F3D1534668
:103C5000103B597900E000BFEDE700E000BFAAE7A4
:103C60005C1D0020000000006C1D00200000000012
:103C7000801D0020D81C0020000000009322F0B519
:103C8000134C85B0002120009200FDF761FF230056
:103C90002000802640270F4D4D337600FF3329301A
:103CA0000295009300220023002103970196FF3024
:103CB00000F0D4F94035201D2834002301220021D2
:103CC000039702950196009400F0C8F905B0F0BD85
:103CD00020200020A01F002010B5054C200000F07F
:103CE000F3F920002538FF3800F0EEF9012010BD6F
:103CF0004821002070B5084C002520003130FF30ED
:103D0000257000F0F1FC20000C3000F0EDFC2A23BF
:103D1000FF33E554657170BD20200020F8B557468B
:103D20004546DE464E46E0B54B7980460F00FF2BF8
:103D30005BD1404B99462A234946FF33CB5C002B8D
:103D400053D14E79002E50D1BB783C780B703B7923
:103D50003C19002B46D098235B004B449A460C2319
:103D60004B449B46A51803E0AC423BD22378E418B1
:103D70006378052BF8D1AC4234D221004046FFF7DE
:103D80005DFB002831D0A3780136F6B2DB09012BA8
:103D900032D0504600F0A8FC2A234946A278FF33CF
:103DA000CA54637922791B021343234A5B05944664
:103DB0005B0D942163445A4253414A460220490014
:103DC000525C5B00824313434A465354514640467B
:103DD000083900F0E3F9002807D02378E4183B798C
:103DE000B342C5D8E01B80B200E00020F0BCBB4667
:103DF000B246A946A046F8BD584600F075FC5A46A2
:103E0000A3780C3A5371637921791B020B430A4959
:103E10005B058C465B0D634459424B41022011798E
:103E20005B0081430B43594600200839137100F0B1
:103E300081F9D2E72020002000FEFFFFF8B52A25F7
:103E400006001F48FF35455D1F008D4215D04379A0
:103E50008B4201D00020F8BD1A4B002B04D039044E
:103E60000020090C00E000BF174C3000210000F0DA
:103E700061F900281DD00120EDE79A235B00C35AA9
:103E8000002B0DD1114B002B04D000201049BAB2E9
:103E900000E000BF30000F4900F080F90120DAE7B0
:103EA00096235B00C1583130BAB2FF3000F060FB9E
:103EB000E8E73A002100300000F008F90120CAE7E5
:103EC000202000200000000024200020000000002E
:103ED000A01F00204821002000B5030083B0002966
:103EE00010D00020012B07D80A78002A04D00C48F3
:103EF000C2540120012A01D003B000BD1800FEF712
:103F0000D5FDF9E701236A46002001A99380FEF759
:103F1000CDFD0028F0D00122014B1A70ECE7C0461D
:103F2000781E0020037870B5DB0704000E00DD0F5B
:103F3000002B17D103785B0701D5280070BD012144
:103F40003000494201F0B8FE2378DB07DD0F002B7B
:103F50000AD123785B0708D4042223780125134370
:103F6000237002E00025E8E70025300001F07CFE28
:103F7000E3E7C04670B50C0001210600494220006D
:103F800001F09AFE33785B07DD0F002B04DB200085
:103F900001F06AFE280070BD3378DB0704D40422E8
:103FA000337893433370F2E70025F0E743790279E1
:103FB0001B021343C2785B0592075B0D920F022A26
:103FC0001DD0032A0CD00020012A08D102394A4210
:103FD0005141124A9446614499424041C0B27047EF
:103FE00002394A1E91410E4A494211408022D200B4
:103FF00094460020614499424041C0B2EFE7022953
:1040000005D0002040229A424041C0B2E7E7054A6D
:10401000981843425841C0B2E1E7C046FF03000090
:1040200040FCFFFF00FEFFFF8A1870B5914207D2E7
:104030007F264C78052C04D00C7809198A42F8D8D0
:1040400070BD34008D782C4064000419ED0963556F
:104050000C7809198A42ECD8F2E7C046F0B5C6469A
:1040600000B582B0150008AA40CA040017886A4645
:10407000928D012090460A00217802408143200061
:10408000114321703A00009331000123083000F001
:10409000F1F8002E01D0002F08D10A9B01206360A7
:1040A0004346638002B080BCB846F0BD26001C3693
:1040B0003000FCF7A5FC0023002D01D033000026C2
:1040C0006361A661E9E7C04601207047F8B50224A4
:1040D0000B7807001C4063425C41144B64421C4057
:1040E000134B08009C4608300D001600644400F095
:1040F000F7F8002807D1002E05D0344203D101245F
:104100002B781C4201D00020F8BD38006978FFF7F9
:10411000AFF90028F7D02B781C42F4D100230022FD
:1041200038006978FFF7CCF9EEE7C04640FEFFFFA4
:10413000FF010000F8B50D000835060028000C004E
:1041400000F0CEF8002803D0012723781F4201D0C9
:104150000020F8BD30006178FFF78AF90028F7D019
:1041600028006288616800F03DF9237805001F404F
:1041700000280BD0002FEBD103006268300061787B
:10418000FFF79EF90028E3D02800E2E7002FDFD1F7
:1041900030006178FFF780F9DAE7C046F8B5CE461F
:1041A000474680B58A8906000C000B78002A07D1A3
:1041B00001251D4240D00020C0BCB946B046F8BD24
:1041C0009B0733D42A4B40259946270008373800EF
:1041D00000F0A4F88542EED80122237890461A42D6
:1041E000E9D130006178FFF743F90028E3D03800C7
:1041F00000F094F8424623781A40854231D8002ACC
:10420000D9D14A46638802401D1C934200D9151C2F
:10421000ADB200226178002D00D062682B00300022
:10422000FFF74EF90028C6D02800C5E7FE238025F9
:104230001B029946AD00C8E74978FFF719F9002835
:10424000B9D023781D42B6D1638800226178002B53
:1042500000D062683000FFF733F90028ABD06088E7
:10426000AAE7002AA7D130006178FFF715F9A2E785
:10427000C0FF0000F0B5C64600B504006846057EE4
:104280008020884617001E000002824226D8E0687F
:10429000002803D00121494201F00EFD20690028C9
:1042A00003D00121494201F007FD43462360730416
:1042B0005B0CED031D430023E0686381A780E5806C
:1042C0002381002801D001F0CFFC2069002801D013
:1042D00001F0CAFC012080BCB846F0BD0020FAE71E
:1042E00010B5048941898288A3B288B28C4207D371
:1042F0001B1A9BB2101C9A4200D9181C80B210BD28
:104300005100091A5B189BB2F4E7C0460389408943
:10431000181A43425841C0B27047C04610B50489CC
:1043200041898288A3B288B28C4207D31B1A9BB200
:1043300000209A4201D9D21A90B210BD5100091A38
:104340005B189BB2F4E7C04670B5040000690E002C
:10435000002803D00121494201F0AEFC2589608983
:10436000A288A9B283B2854232D3CD1AADB2002D54
:1043700028D0AA4208D291422FD3891A8BB26381E6
:104380009A4203D89B1A9BB29A42FBD9E2882168D1
:104390005204520C53433000C918FDF7DFFB638908
:1043A0000125591C89B2A2888B420DD900215200E7
:1043B000891A89B220696181002801D001F054FC7A
:1043C000280070BD618989B252009142F2DBEFE7AB
:1043D0005500ED1A4D19ADB2C9E789188BB263814A
:1043E000CEE7C046F0B546464F46D646C0B50600B5
:1043F000006989469046002803D00121494201F016
:104400005BFC31897289B5888BB294B2914254D3E6
:104410001F1BBFB2002F4AD0BD4205D2AB4251D2C2
:104420005B199CB22F0074814346B8453DD89FB2BA
:10443000A54203D8641BA4B2A542FBD9F288316817
:104440005204520C904662432B1B9BB28918424681
:104450009F4225D953439BB21A0048469A46FDF71E
:104460007DFB434648467D1B64195C4331685044DC
:10447000A2B2FDF773FB7189B588CB199BB26A00B4
:10448000994216D99B1A9BB230697381002801D0DA
:1044900001F0EAFB3800E0BCBA46B146A846F0BDE0
:1044A00048467A43FDF75AFBE5E73B1CBFE77389B3
:1044B0009BB26A009342E7DBE4E76F003F1BDF1922
:1044C000BFB2A7E75B1B9CB2ACE7C046F8B50400DF
:1044D000C0680E00002803D00121494201F0ECFB26
:1044E000258920896189A288ADB283B28FB28842C2
:1044F00029D3DB1B9BB29A4209D8E779FF0906D181
:10450000E068002801D001F0AFFB3800F8BD2B00B7
:1045100095421DD39B1A9BB29342FBD2E28820683E
:104520005204520C53433100C018FDF717FB6B1CAB
:104530009BB2A2889D4217D9002352009B1A9BB2BE
:1045400001272381DCE75100C91B5B189BB2D2E72E
:10455000E28820685204520C53433100C018FDF722
:10456000FDFA0135A288ABB252009342E8DBE5E7E1
:10457000F0B54E465746DE464546E0B5894606004C
:10458000170083B0002A67D0C068002803D001213B
:10459000494201F091FB3389F2799BB298467389C5
:1045A000B5889BB2D20940D198455ED26A00D31A31
:1045B00043449BB2AB425DD2EB1A1A1C9BB2BB4286
:1045C00000D93A1C97B27B1B9BB20193F3885B0422
:1045D0005B0C9A464346DB199BB29B464446A84572
:1045E00003D3641BA4B2AC42FBD25346634330688E
:1045F0002D1BADB2C018BD424BD3524649467A433B
:10460000FDF7ACFAB3885B00D84501D89B4503DBC6
:104610005A46D31A9BB29B465B463D003381F068F5
:1046200000281AD001F020FB17E0F2885204520C47
:104630009246AF4220D298454DD34246D21A92B20A
:104640006900781B80B2D21901908A4233DA43465E
:10465000FB189BB29B46C1E70025280003B0F0BCC5
:10466000BB46B246A946A046F0BD4246D31A9BB20D
:10467000AB42A1D30025D2E7002DD0D07F1B5743FA
:1046800098465A19002392B2B94493462F000193D9
:10469000A4E753465D43ADB22A004946FDF75EFAF2
:1046A000019B2900E21853465A43306892B24944AC
:1046B000FDF754FAA6E75A1992B29346D21B92B26A
:1046C000904693420CD94346591A8BB29846FB1830
:1046D0009BB29B4682E76900CA1A424492B2B0E795
:1046E000914200DD7AE7EEE710B50400C0680028CB
:1046F00003D00121494201F0DFFA2069002803D0EC
:104700000121494201F0D8FA0023E0686381238146
:10471000002801D001F0A8FA2069002801D001F09A
:10472000A3FA012010BDC04670B50400C0680D009A
:10473000002803D00121494201F0BEFA2069002877
:1047400003D00121494201F0B7FA7F21E379ED015D
:104750001940E0682943E171002801D001F084FA92
:104760002069002801D001F07FFA012070BDC04609
:1047700010B583070AD00300032102E001330B4286
:1047800005D01A78002AF9D1181A10BD030019684B
:104790000C4A0D4C8A188A4322420FD15968094AA3
:1047A00004338A188A43224208D15968054A0433DF
:1047B0008A188A432242F1D000E001331A78002A95
:1047C000FBD1E1E7FFFEFEFE80808080034B10B549
:1047D0001A680123503200F0B1FD10BDB81000205E
:1047E00070B5074C074D641BA41005D0013CA30015
:1047F000EB589847002CF9D101F02AFA70BDC04659
:10480000605D0010605D00100020704710B5034A25
:104810000349044800F0CAFF10BDC0460012002042
:10482000614A0010C010002041680B4B10B5040015
:10483000994201D000F014F9A168084B994202D0C6
:10484000200000F00DF9E168054B994202D02000EC
:1048500000F006F910BDC046D0190020381A00201B
:10486000A01A002000207047F8B5CE464746344CC9
:10487000344B354A2000002580B51A6004230822F5
:1048800000215C3025606560A56065662561656115
:10489000A561E360FDF75CF92C4B2000994623628B
:1048A0002B4B2C4F98466362CC23E5502A4B2B4E62
:1048B0006367802308220021C430E550A762E662C6
:1048C000A566E5662567A567E567E461FDF740F93C
:1048D000220084236832E2504A460433E2504246C2
:1048E00020000433E2500433E7500433E6503C33F5
:1048F000E5500433E5500433E550194A5C33E55084
:10490000583BE2500433E5502D300433E550082283
:1049100004330021FF30E550FDF71AF92200EC23A3
:10492000D032E2504A460433E25042460433E25069
:104930000433E7500433E650C0BCB946B046F8BD76
:10494000D0190020CC1900200D480010415500104E
:104950006D550010AD55001009000100DD55001027
:1049600012000200F8B5244B07001B68002B3BD057
:10497000224E7368B468013B03D51BE06834013BE9
:1049800018D30C22A55E002DF8D120001C4B082264
:104990000021E36065662560A5606560256165614D
:1049A000A5615C30FDF7D4F8256365636564A56493
:1049B0002000F8BD3568002D01D02E00D9E7D621A2
:1049C0003800490000F09EF8041E10D00423D022C5
:1049D0000560250043600C300021A0605200FDF707
:1049E000B7F834602E00C4E7FFF73EFFC0E70C23A2
:1049F00030603B60DCE7C046CC190020001200208C
:104A00000100FFFF436B10B5002B00D010BD044B1D
:104A10004363044B1B68002BF8D1FFF725FFF5E734
:104A200029480010CC1900207047C0467047C04686
:104A300010B50020024A034900F0B8FE10BDC04680
:104A4000001200200948001010B50020024A034956
:104A500000F0ACFE10BDC0460012002065480010FA
:104A600070B506000C1E08D0002802D0436B002B46
:104A70003BD00C22A35E002B02D10025280070BD84
:104A80002100300000F0B0FDE36A0500002B04D0E7
:104A90003000E169984700281DDBA3891B061FD45D
:104AA000216B002908D023004033994202D0300006
:104AB00000F05AFB00232363616C002904D030000E
:104AC00000F052FB00236364FFF7AEFF0023A381D5
:104AD000FFF7ACFFD2E70125A3896D421B06DFD5A6
:104AE0003000216900F040FBDAE7FFF78BFFC0E7F9
:104AF00010B5034B01001868FFF7B2FF10BDC046A8
:104B0000B8100020F0B54E464546DE465746E0B5A3
:104B10000D000B35060085B0162D27D8102900D9B9
:104B2000DAE000F0ABFC102518230221C74FFB1878
:104B30001A005C68083A944200D146E10322636897
:104B4000A1689343E268CA6091600121E3185A6842
:104B500030000A435A6000F093FC2000083005B092
:104B6000F0BCBB46B246A946A046F0BD07239D4314
:104B700000D5B1E0A94200D9AEE000F07FFCFC23F3
:104B80005B009D4200D294E1690A00D1A8E00429AB
:104B900000D94FE138239846A90988443931CB0020
:104BA000082252429446A94FFB189C446346DC6895
:104BB000A44514D0032399460B0061469C4607E0A8
:104BC000E068002A00DBFAE0814200D1FBE004004B
:104BD0004A46636893435A1B0F2AF1DD41463A0067
:104BE0003C690832944200D1D8E0032063688343D3
:104BF000581B0F2800DD60E13A617A610028A4DAD1
:104C00007A68904680229200934200D3E3E0DA086B
:104C1000580901238340404618438046D300DB19DE
:104C20009A687860E360A2609C60D46001208B1079
:104C3000984040455CD8434603420AD10323994338
:104C4000434640000431034203D140000431034293
:104C5000FBD00323B3469C460E00B8460190F000FB
:104C600040440100B246CB680BE064465A681F001E
:104C7000A243DB68541B0F2C00DDEDE0002C00DBB1
:104C800007E19942F1D101239946CA4453460831BC
:104C90009B07E8D1032205E003680838013E834200
:104CA00000D001E23242F7D14346019A5B68934358
:104CB00042465360019A520001929A4216D8002A45
:104CC00006D113E004229146019ACA44520001928F
:104CD0001342F7D05646C2E70C23002033603EE76C
:104CE00080233F22402190469B0059E75E4647467D
:104CF0000322BC68636893439846AB4202D35A1BB5
:104D00000F2A4EDC230043440293514B08209A465D
:104D10001B6810335B19019300F0A4FD4D4903900B
:104D20000B688B46013306D08446019B4242013B0F
:104D30006344134001933000019900F0A3FB03008A
:104D40008146013300D1D6E0029B834200D9D0E0F6
:104D500053465A68019B51469C4662444A600298F9
:104D600003990139484500D0E3E04846084200D0A5
:104D7000DFE0B9684344894601210B4349464B6053
:104D80005146C96A914201D25146CA625146096BE5
:104D9000914201D251460A634C46AEE07B68984688
:104DA00044E7012329001A43194365196160300063
:104DB000BD606A6000F064FB20000830CFE6A268A6
:104DC000D0608260C1E6614609E7DC680231A34237
:104DD00000D104E7B2E65A0A042A00D882E0142A75
:104DE00000D907E110005B3082465C32D200082017
:104DF00040428446BA189444624692680B30814619
:104E0000944500D1DEE00800A2466146844602E0F7
:104E10009268914204D04C465068A0439842F7D81B
:104E2000D368614654469C466346A260E3609C603A
:104E3000D460FBE614296DD9542900D9E3E06E2330
:104E40009846290B88446F31CB00A9E61812002040
:104E5000081B002010120020BA460120514684464B
:104E60004919054350464560856847466046EB60F2
:104E70005E469D605346396179612043083748603A
:104E8000CF6030008F609C5000F0FAFA5046083036
:104E900065E6BA4601205E465244516801435160BE
:104EA000BA683000D3609A6000F0EAFA380008303F
:104EB00055E62B00E908083338E6611988460121D8
:104EC0008C460D434146656039617961CA608A60EC
:104ED000624602434A60E050300000F0D1FA200000
:104EE00008303CE69A091000393238308246D20048
:104EF0007DE7BC4214D0BC686368032293435A1B0D
:104F0000AB4202D30F2A00DD4BE7300000F0B8FAC5
:104F1000002024E65B23984688445C31CB003FE6C2
:104F200053465A68019B9C46534662445A60039B11
:104F3000591E5B461B68013370D04B4602981B1A02
:104F40009B185246536007234A4648461A4002922D
:104F5000184240D00398013384469B1A019A994421
:104F60004A44019263440A409B1A194030008B4620
:104F700000F088FA431C77D04B46C01A03005B440C
:104F8000019353465A6801205A445A604B46494699
:104F9000BB60019B03434B60BC4200D1F0E643463B
:104FA0000F2B3FD907210C3B8B4361680140052043
:104FB00019436160E118486088600F2B49D84B465F
:104FC0005B68DDE653469810012383404046184352
:104FD0008046786028E7019B039A4B440B40D31A24
:104FE000194030008B4600F04DFA431CC4D1002319
:104FF0009B46C6E7542A17D81A0B10006F326E3042
:105000008246D200F3E6AA235B00994217D8DD3B23
:105010009846E90B88447831CB00C1E55B464A46A7
:105020001A6090E7486070E7AA204000824226D8C4
:10503000DA0B1000783277308246D200D7E61C4B6C
:10504000994226D87C239846A90C88447D31CB0010
:10505000A6E521003000083100F086F853465A6872
:10506000BB6899465B688BE6019A029B94464A4668
:10507000083B63449B1A019300239B4681E70C483D
:1050800082420CD89A0C10007D327C308246D200CD
:10509000ADE6FE237E227F2190469B0080E5FE2226
:1050A0007E2092008246A2E643465B6802E6C04646
:1050B00054050000F0B5C646060000B508200D00F6
:1050C00000F0D0FB0400300000F0D8F9234B2100A1
:1050D00098469B685F6803239F4338001138401B44
:1050E0000019FCF73DFC451E6543AC4208DC00217D
:1050F000300000F0C7F943469B68DB19984206D0A0
:10510000300000F0BDF9002080BCB846F0BD300092
:10511000694200F0B7F901300ED0012243467F1BEF
:105120009B6817430E4A5F60136830005B1B136077
:1051300000F0A6F90120E7E70021300000F0A2F915
:1051400043469A68831A0F2BDADD064C044924681B
:10515000001B086001210B435360D1E718120020A7
:105160000C1B002010120020F8B5CE464746050063
:105170000C0080B5002957D000F080F901232100F0
:105180009C46083948686246030003249343CF18BD
:105190007A68654EA243B468BC4200D170E0BC1886
:1051A000A14664467A60044221D10868091A1B1896
:1051B000886880464846406820403400083481466C
:1051C000A04551D04046CC68C460A0604846002845
:1051D00011D19B185548BA68824200D17FE0F86827
:1051E000D060826001221A434A60CB5007E04846F3
:1051F00040682042EDD062461A434A603B608022FC
:105200009200934214D2DA0858090123834070684F
:1052100003437360D3009B199A68CB608A609960DE
:10522000D160280000F02CF9C0BCB946B046F8BDEA
:105230005C0A042C3DD89C09200039343830E40045
:1052400034192268083C0327944203D140E0926855
:10525000944203D05068B8439842F8D8D468CC60E0
:105260008A60A160D160DCE7002858D1B868D21804
:10527000FB68C3609860634613434B608A50D0E775
:105280009A186346034206D10B68C91A8868D21877
:10529000CB68C3609860012313434B60244BB1601B
:1052A0001B689342BDD8234B28001968FFF702FF03
:1052B000B7E7142C07D9542C1AD81C0B20006F34D4
:1052C0006E30E400BCE720005C345B30E400B7E7FC
:1052D000012380108340706803437360BFE7D1608F
:1052E0009160CA608A6001221A434A60CB5098E7F5
:1052F000AA225200944205D8DC0B20007834773083
:10530000E4009DE70C4A944205D89C0C20007D34B3
:105310007C30E40094E7FE247E20A40090E76246FF
:105320001A434A603B607CE71812002020120020DC
:1053300014120020081B002054050000F0B50028BE
:1053400026D0070038000C000678013702E001344F
:10535000AE4214D02578002DF9D1002E1DD03E008C
:105360000B003578013702E00133002CF7D01C78B0
:10537000A542F9D10023002D06D11360F0BD002B0A
:10538000E0D117600370F9E700213B003170F4E7CA
:1053900010680028D5D10020F0E700201660EDE766
:1053A00010B50123FFF7CAFF10BDC046014B1868B6
:1053B0007047C046B8100020F0B5D6464F46464666
:1053C0008146C0B58A4616001D00012A44DD00282A
:1053D00002D0436B002B41D05746013E0DE06B6875
:1053E00038001B1B6B602B6822001B1941462B6089
:1053F000FCF7B4FB3F19361B2BD06B68002B06D192
:105400002900484600F04CFA002820D16B682A6831
:10541000340090469E4200D91C0022000A214046DA
:1054200000F0E6F90028DAD043460130C41A6B6870
:1054300022001B1B09C541463800FCF78FFB0023E7
:105440003B555046E0BCBA46B146A846F0BD57456C
:1054500002D000233B70F4E70020F3E7FFF7D2FA15
:10546000BAE7C04610B504001300034A10680A00EA
:105470002100FFF7A1FF10BDB81000207047C04603
:105480007047C046002370B5064C05000800236035
:10549000FCF78CFB431C00D070BD2368002BFBD0B5
:1054A0002B60F9E73C1B002010B50100002300220F
:1054B000002000F0AFFA10BD024670B50A43920713
:1054C0002AD11E4DEE0104C808C9541B9443344030
:1054D00017D0D0B2D9B2401A2106014310D190B2F0
:1054E00099B2401A210401430AD110021902000A9C
:1054F000090A401A2102014302D1100E190E401A66
:1055000070BD9A42DFD010BA19BA884201D9012081
:1055100070BD0020C04370BD02780B7801300131AE
:10552000002A09D09A4207D102780B780130013164
:10553000002A01D09A42EFD0D01A70BD01010101BA
:1055400070B50C000E25495F00F0A0FA002803DBBF
:10555000236D1B18236570BDA389024A1340A381E4
:10556000F9E7C046FFEFFFFF00207047F8B50C00D9
:105570001F000C23C95E05001600CB050AD40A4B98
:10558000320019402800A1810E23E15E3B0000F0AB
:1055900007FAF8BD0E23E15E0022022300F026FA8E
:1055A0000C23E15EEBE7C046FFEFFFFF70B50C0098
:1055B0000E25495F00F01AFA431C07D08023A28908
:1055C0005B0113431BB22065A38170BDA389024A0E
:1055D00013401BB2F8E7C046FFEFFFFF10B50E23E4
:1055E000C95E00F0F1F910BDF0B5C64600B50C2259
:1055F0008B5E07000C001A0751D480254A682D01E4
:105600001D438D81002A00DC6CE0A66A002E42D08A
:105610003A68E169904600223A60DB0467D40022D0
:1056200001233800B0470200431C00D16EE00C2378
:10563000E55EA66AE1696D0706D56368D21A236B39
:10564000002B01D0E36BD21A00233800B047431C73
:105650004FD139680C22A35E1D2962D8324ACA4054
:10566000D2075ED5314A1A40A281002262602269C7
:105670002260DB0401D5002946D04346216B3B6004
:10568000002908D023004033994202D03800FFF7A8
:105690006BFD00232363002080BCB846F0BD0E697B
:1056A000002EF8D00D680022AD1B0E609B0700D1C4
:1056B0004A69A260002D04DCEDE736182D1A002D92
:1056C000E9DD636A3200984638002B00E169C04783
:1056D0000028F2DC4022A38913431BB20120A381DE
:1056E0004042D9E7CA6B002A00DD8EE7D3E7226D7E
:1056F000A1E70C22A35E0D4A1A40A281002262603B
:1057000022692260DB04B8D52065B6E73B68002B30
:1057100000D18CE71D2B01D0162BDBD143463B601B
:10572000B9E740221343D9E701004020FFF7FFFF0C
:1057300070B504000D00002802D0436B002B09D087
:105740000C22AB5E0020002B03D029002000FFF7C5
:105750004BFF70BDFFF756F9F2E7C04670B5041E67
:1057600015D00E4B1D68002D02D06B6B002B0AD09C
:105770000C22A35E0020002B00D170BD2100280068
:10578000FFF732FFF9E72800FFF73CF9F0E7044A9A
:105790000449054800F00AF8EFE7C046B8100020B9
:1057A0000012002031570010C0100020F8B5474605
:1057B000CE46884680B58146170000267D68BC68C5
:1057C000013D0DD4A389012B07D90E22A35E01331D
:1057D00003D021004846C04706436834013DF1D25A
:1057E0003F68002FEAD13000C0BCB946B046F8BDD2
:1057F00070B5CCB283070DD0531E002A0FD00325FD
:1058000004E00130284206D0013B08D30278A242CE
:10581000F7D170BD1300032B03D8002B14D1002047
:10582000F7E7FF220A401502AD182A040B4EAD1807
:1058300003E0043B0430032BEFD9026808496A40B7
:10584000511891433142F4D0C31802E0013098421C
:10585000E5D00278A242F9D1DBE7C04680808080A3
:10586000FFFEFEFE802310B55B01082801D1180061
:1058700010BDFFF79BFD16230360173BF7E7C046FB
:1058800009238A89002010B51340092B00D010BDD0
:10589000024B1868FFF74CFFF9E7C046B81000202C
:1058A00070B505000C00002802D0436B002B57D0C8
:1058B000002363600C22A35E9A065BD45A071AD4B5
:1058C000DA065AD508261E4239D104221343A38191
:1058D0002369002B3FD00C23E65EB3071ED122695B
:1058E00028006369E169266A2260B0476060002889
:1058F00039DD002070BD216B0029E9D02300403341
:10590000994202D02800FFF72FFC00232363E36BAA
:105910006360002BDCD0A36B2360EAE701231D4A00
:10592000A3811D491D48FFF741FF0923A68133408C
:10593000092BD4D121002800FFF756FECFE7210024
:105940002800FFF7F5FE002814D1A389A060B34317
:105950001BB2A061B9E72100280000F0ABF8BAE75C
:10596000FFF750F8A4E70C22A35E00280BD12022F9
:105970001343A38101204042BCE709222A60402250
:105980001343A381F6E70022626040221343A38100
:10599000F0E7C0460012002081580010C01000201F
:1059A00070B50400080011001A000023054D2B609B
:1059B000FCF728F9431C00D070BD2B68002BFBD0EE
:1059C0002360F9E73C1B0020002370B5064C05005E
:1059D00008002360FCF728F9431C00D070BD236841
:1059E000002BFBD02B60F9E73C1B002070B50400B6
:1059F000080011001A000023054D2B60FCF718F970
:105A0000431C00D070BD2B68002BFBD02360F9E74E
:105A10003C1B0020F0B5C6461A4C00B52568002D89
:105A20002AD06C681F2C2ADC002808D10020631CB7
:105A30000234A4006B60615180BCB846F0BD882779
:105A4000A600AE19F2510137FF37BC460122AC4423
:105A50006746A2403F689046174362461760842716
:105A60007F00F3510228E1D1280042468D30FF30FB
:105A7000036813430360D9E7034D2560D1E7012094
:105A80004042D9E7D01C0020401B002070B5040024
:105A9000080011001A000023054D2B60FCF7A0F848
:105AA000431C00D070BD2B68002BFBD02360F9E7AE
:105AB0003C1B0020F0B5C64600B50C228B5E0500ED
:105AC0000C0096B09A0709D5230043332360236165
:105AD0000123636116B080BCB846F0BD0E22895E1A
