:020000041000EA
:1000000000B5324B212058609868022188439860DF
:10001000D860186158612E4B002199600221596106
:100020000121F02299502B49196001219960352056
:1000300000F044F80222904214D00621196600F024
:1000400034F8196E01211966002018661A6600F04E
:100050002CF8196E196E196E052000F02FF8012189
:100060000842F9D1002199601B49196000215960AB
:100070001A491B48016001219960EB211966A021F2
:10008000196600F012F800219960164914480160C1
:100090000121996001BC002800D000471248134993
:1000A000086003C880F30888084703B5996A0420EC
:1000B0000142FBD001200142F8D103BD02B5186610
:1000C0001866FFF7F2FF186E186E02BD00000240BE
:1000D000000000180000070000035F00212200005C
:1000E000F4000018222000A00001001008ED00E03C
:1000F00000000000000000000000000074B24E7A12
:1001000000200420F7010010CB010010CD010010E9
:10011000C9010010C9010010C9010010C901001077
:10012000C9010010C9010010C9010010CF01001061
:10013000C9010010C9010010D1010010D301001045
:10014000C1010010C1010010C1010010C101001067
:10015000C1010010C1010010C1010010C101001057
:10016000C1010010C1010010C1010010C101001047
:10017000C1010010C1010010C1010010C101001037
:10018000C1010010C1010010C1010010C101001027
:10019000C1010010C1010010C1010010C101001017
:1001A000C1010010C1010010C1010010C101001007
:1001B000C1010010C1010010C1010010C1010010F7
:1001C000EFF30580103800BE00BE00BE00BE00BECA
:1001D00000BE00BEF2EB8871E8BB001014BC00103A
:1001E0003802001090A31AE71E481F49086006C88D
:1001F00081F3088810471D480068002801D019487D
:10020000F3E70DA40ECC002902D000F012F8F9E7B4
:100210001749184A002000E001C19142FCD116495B
:100220008847164988471649884700BEFDE701C937
:1002300001C29A42FBD3704714BC0010C0000020DA
:10024000E017002034D30010000004200000042038
:1002500034D300100010042000100420000000001F
:10026000704700000000000008ED00E0000000D032
:10027000E0170020004D0020394F0010D50D001070
:10028000F94E0010F8B5C0460448054B10B583423E
:1002900003D0044B002B00D0984710BDE01700207E
:1002A000E01700200000000006480749091A8B10DB
:1002B000C90FC91810B5491003D0044B002B00D04A
:1002C000984710BDE0170020E01700200000000054
:1002D00010B5074C2378002B09D1FFF7D5FF054B4C
:1002E000002B02D0044800E000BF0123237010BDA2
:1002F0006825002000000000F0AF0010054B10B58D
:10030000002B03D00449054800E000BFFFF7CCFFF5
:1003100010BDC046000000006C250020F0AF0010AA
:10032000D0B5CE4600B583B000F020F92F4E009036
:10033000019133681A78002A0BD008202C4FB95C41
:10034000084201D1202A0AD8013333601A78002AE2
:10035000F5D10098019903B080BCB946D0BD022008
:10036000FD212B3A082481460A42F2D15A1C326000
:100370005A781878002A0BD00233B95C0C4201D1AC
:10038000202A05D8336001335A1E1278002AF4D18E
:100390002B2818D000F0EAF802000B000098019911
:1003A00002F087FB0090019133681A78002AD0D0C0
:1003B000B95C0C4201D1202A10D8013333601A787D
:1003C000002AF5D1C5E700F0D1F802000B00009833
:1003D000019902F077FB00900191E5E749462B3A3D
:1003E0008A43D2B2002AC1D0B3E7C046642F0020AE
:1003F000B9B90010F0B5C64600B5564C84B02068B7
:100400000378002B00D196E0082553495A1C8A5CDA
:10041000154201D1202B59D8013020600378002BE0
:10042000F4D14A7804210B001340114254D19207B1
:1004300046D00021E8460727484D07E00E2902DC98
:100440004246535401310130206003783E00EA5C9B
:1004500016401742F2D1242BF0D047467E54002B91
:100460000DD00821013000E0EA5C114201D1202BBF
:1004700005D820600130431E1B78002BF4D10025E5
:10048000374C03E001352834402D19D02378002B58
:10049000F8D020004146203809F0C4FD0028F1D1F1
:1004A000AA00304B5219D2009B181A7C002A3FD068
:1004B00045202D4C01340AF03FFD20780028F9D169
:1004C0000020002104B080BCB846F0BD282B1AD013
:1004D000510701D42E2BAAD1694608F059FB009B85
:1004E00023601A78002AEDD008271C4D0133AE5C3A
:1004F000374201D1202AE5D8236001335A1E1278F1
:10050000002AF4D1DEE701302060FFF709FF2368FD
:100510001A78002AD6D00827104DAE5C374201D198
:10052000202A11D8013323601A78002AF5D1C9E7AF
:100530009869D969C6E70421074B5A780B00134024
:10054000114200D173E7C7E7292ABBD101332360E9
:10055000B8E7C046642F0020B8B90010B9B9001040
:10056000881B0020681B0020F4AF0010F0B583B09A
:10057000FFF740FF2E4F009001913B681A78002A48
:100580000BD008202B4CA15C084201D1202A04D8B2
:1005900001333B601A78002AF5D1264E2A2A01D071
:1005A0002F2A35D15A1C3A605A781C78002A0CD070
:1005B00008200233B15C084201D1202A05D83B60F3
:1005C00001335A1E1278002AF4D12A2C24D0FFF7C6
:1005D00011FF0022002304000D0002F0DDFA0028C4
:1005E00007D10098019922002B0002F074FA0090C4
:1005F00001913B681A78002A0AD00820B15C0842B1
:1006000001D1202ACAD801333B601A78002AF5D1DB
:100610000098019903B0F0BDFFF7ECFE02000B005B
:100620000098019902F075FA00900191E1E7C04647
:10063000642F0020B9B90010F0B54E465746DE468B
:10064000C0B52F4F82B0050089463E0000240092BD
:10065000019303E001342836402C30D03378002B4E
:10066000F8D030002900203809F0DCFC0028F1D156
:10067000A3009A46234B9B4653464A461B19DB0070
:100680005B441A74002A15D09869002801D002F042
:1006900065FF0A9B002B30D00A9808F04DFB230021
:1006A0005344DB005B44986102B0E0BCBB46B246F9
:1006B000A946F0BD0099019A9961DA61F4E7002436
:1006C00003E001342837402CEED03E78002EF8D1DC
:1006D000A3000C4A9A461B19DB00934619005944A3
:1006E0000B0029001D000F22180007F06BFA2B00E9
:1006F000012220331A70AE61BEE7034B0A93CBE7A9
:10070000881B0020681B002010B00010F0B5CE46FA
:10071000474680B5404C89B023681A78002A0BD030
:1007200008203E4DA95C084201D1202A11D801338E
:1007300023601A78002AF5D10D20394C01340AF0D3
:10074000FBFB20780028F9D109B0C0BCB946B046FF
:10075000F0BD3449E94688460826222A3BD1591C77
:1007600021605B78002B09D118E04B1C23600878CE
:100770000AF0E2FB21680B78002B0FD0222BF4D17A
:100780004A1C22604B7807E0E95C0E4201D1202B25
:100790000DD8013222601378002BF5D10D20204CAA
:1007A00001340AF0C9FB20780028F9D1CCE72C2BC2
:1007B00027D03B2BF2D1531C23605278002AEDD076
:1007C000A95C0E4201D1202AC7D8013323601A78D0
:1007D000002AF5D1E2E7FFF7A3FD0B000200414636
:1007E000484604F01FFB4B4618784F46002805D0BA
:1007F00001370AF0A1FB38780028F9D12268137874
:10080000CAE72020084F01370AF096FB3878002805
:10081000F9D12268CFE7C046642F0020B9B9001093
:1008200008B0001014B000100CB00010F0B5C646AF
:1008300000B53F4908250B683E4C1A7896B0002A4F
:1008400009D0A05C054201D1202A04D801330B60F5
:100850001A78002AF5D102A800268046072707E06B
:100860000E2E02DC40468255013601330B601A78A9
:100870003D00A05C05400742F2D1242AF0D040465A
:1008800085551A780826002A09D0A05C064201D1B5
:10089000202A11D801330B601A78002AF5D1FFF70E
:1008A0003FFD0B000021020000914046FFF7C4FE0F
:1008B00016B080BCB846F0BD18003D2A04D1581CC3
:1008C00008605A78002AEAD00826A35C1E4201D1AB
:1008D000202A05D8013008600278002AF5D1DEE729
:1008E000222ADCD11726421C0A60447800236E4479
:1008F000002C0AD10BE03F2B09D001320A600133F2
:10090000C45CF4541478002C01D0222CF3D10024C0
:1009100006A8C4541378222B01D101320A6000903A
:100920000022002301214046FFF786FEC0E7C046B3
:10093000642F0020B9B90010F0B5C64600B5C44C0C
:1009400094B0206002780700002A0DD0030008262A
:10095000C04D511C695C0E4201D1202A08D80133D8
:1009600023601A78002AF4D114B080BCB846F0BDD8
:1009700004208046084200D0E4E00135AA5C16421B
:1009800000D07FE16F465A1C22601A783A705A787C
:10099000002A00D188E1AA5C164200D084E19A1CAA
:1009A00022605A787A709A78002A00D17EE1AA5C97
:1009B000164200D07AE1DA1C22609A78BA70DA78AE
:1009C000002A00D174E1AA5C164200D070E11A1D21
:1009D0002260DA781979FA70002900D16AE10822D8
:1009E0009D4D685C024200D064E139715979581D0F
:1009F0002060002900D16CE1685C024200D068E10F
:100A000079719979981D2060002900D163E1685CB3
:100A1000024200D05FE1B971D979D81D2060002968
:100A200000D15AE1685C024200D056E11800F97129
:100A3000197A08302060002900D150E1685C024238
:100A400000D04CE11A003972597A0932226000292B
:100A500000D146E10822685C024200D041E1180062
:100A60007972997A0A302060002900D13DE1685CF2
:100A7000024200D039E11800B972D97A0B302060F7
:100A8000002900D12FE1685C024200D02BE1180060
:100A9000F972197B0C302060002900D1F5E0685C08
:100AA000024200D0F1E018003973597B0D3020600C
:100AB000002900D11BE1685C024200D017E11A0056
:100AC0000E3222609A7B7973002A00D111E1A95C71
:100AD000090700D50DE10F3323600F23BA730022FD
:100AE00038005E49FA5408F0CDFC002827D03800C1
:100AF0005B4908F0C7FC00287CD03800594908F051
:100B0000C1FC00284ED1C823574D5B01EE1803E00D
:100B10004035B54200D127E728782C000028F7D0CF
:100B200001340AF009FA20780028F9D14F4C0D3031
:100B300001340AF001FA20780028F9D1E8E7FFF73C
:100B4000E5FD11E7180009F043F941462268013537
:100B500013788446EE5C314208D00420511C216099
:100B60000B780A00EE5C01313042F8D1002B0FD037
:100B70000821394D013200E0EE5C314202D1202BD8
:100B800000D984E022600132531E1B78002BF3D180
:100B90006346632B00D9E7E6624690010022324BA0
:100BA000C254E1E63800324908F06CFC002824D138
:100BB000C8232D4C5B01E71804AB98460425264E4C
:100BC00003E04034BC4200D1CEE62378002BF8D0BD
:100BD0002100404609F016FA43461B784046F35C74
:100BE0001D4204D043780130F35C1D42FAD1FFF777
:100BF000A3FEE6E7FFF71AFEB6E638001D4908F047
:100C000041FC002811D1A0231B4C1B01E51802E078
:100C10002834AC4250D0237C002BF9D02378012B10
:100C2000F6D1A06802F09AFCF2E73800134908F008
:100C300029FC00285FD03B78002B00D194E653209C
:100C40000F4C01340AF078F920780028F9D18BE6AE
:100C5000642F0020B8B90010B9B9001028B00010F6
:100C600030B0001034B00010C433002008B00010C1
:100C70003CB0001040B00010781B002044B00010C1
:100C800018B0001000236F4629E70C2327E76346BE
:100C9000632B00D968E663469801184B3F22390060
:100CA000C01806F08FFF5FE6012318E7022316E75E
:100CB000032314E7042312E7A022002112011048A5
:100CC00002F058FCC822002152010C4802F052FCEC
:100CD0004AE6052303E7062301E70723FFE6082387
:100CE000FDE60923FBE60B23F9E60A23F7E60D23CD
:100CF000F5E60E23F3E60AF03FF935E6C4330020AB
:100D0000681B0020F0B5CE464746C82280B50021BA
:100D100091B05201294802F02DFCA0220021284860
:100D2000120102F027FC5020264C01340AF004F98D
:100D300020780028F9D1244B6E469946234B244F46
:100D400098463E204C4601340AF0F6F820780028F8
:100D5000F9D100250AF0E8F804000D2811D00A287E
:100D60000FD008281CD07F281AD00AF0E5F86B1C99
:100D700074553E2D20D01D000AF0D6F804000D2831
:100D8000EDD100230D20444675192B7001340AF073
:100D9000D3F820780028F9D13000FFF7CDFDD0E757
:100DA000002DD7DD08203C00013D01340AF0C4F8D5
:100DB00020780028F9D1CDE73F25E2E7C4330020B1
:100DC000681B002048B0001060B0001008B0001090
:100DD000F0AF001010B504F0BBF9FA20C00000F02D
:100DE000F1FEFFF78FFFC046094A83009A1810B53D
:100DF00014684022544080322240064CC000A44671
:100E000063441A60044B9C466044416010BDC04678
:100E100004C0014004D00140004001408023DB05B4
:100E20001868000F7047C0460FB400B5084883B07B
:100E300004F0E0F9049B002B07D005A918000191EC
:100E400004F026F8034804F0D5F9012004F038F83E
:100E500064B0001074B0001070B5EFF3108C72B66F
:100E60000D4D2B68002BFCD0BFF35F8F0724CB0800
:100E7000C618C05C01230C40A3401C000440034280
:100E800007D118433070BFF35F8F2C608CF310884C
:100E900070BD1000FFF7C8FF2C0100D0F8B5474621
:100EA000CE46884680B5EFF3108C72B61C4D2C6888
:100EB000002CFCD0BFF35F8F9A4222D80721012675
:100EC000894602E00132934218D34D46370015405F
:100ED000AF40D4080119045D2742F3D110003C4310
:100EE0000C70BFF35F8F00220D4B1A608CF31088DB
:100EF00000280EDBC0BCB946B046F8BD0120404218
:100F0000EFE7BFF35F8F00232B608CF31088012085
:100F100040424346002BEDD00898FFF785FFC046BE
:100F20002C0100D0044A1078431CDBB2172B00D9E7
:100F3000102313707047C0463010002010B5064BC8
:100F4000064C82B00100009318221F232000FFF7F7
:100F5000A5FF02B010BDC04678B00010342F0020AD
:100F60000021044B044ABFF35F8F02C39342FAD1BE
:100F70007047C046000100D0800100D0054B064AF2
:100F80001360064A136053609360D360136153612A
:100F9000936170478080808000E400E004E400E01A
:100FA0001F2318401E3B8340002905D0C021044A5E
:100FB0004900535013607047802201498B50FAE773
:100FC00000E100E001228240034B1B6813405A1EDF
:100FD0009341D8B27047C04600E100E0012383404E
:100FE000014A13607047C04600E200E0064B103033
:100FF0009B688000C358054A00209B1A2F229A4202
:101000004041C0B27047C04600ED00E034100020FF
:1010100070B50D00EFF3108672B60F4A1368002BFF
:10102000FCD0BFF35F8F0D4B10309B6884001B59C1
:101030000B4A934203D09D4201D001F0ADF9074B1A
:101040009B681D51BFF35F8FBFF35F8F0022024B80
:101050001A6086F3108870BD240100D000ED00E016
:10106000C1010010F0B557464E46DE464546E0B594
:1010700085B0060000911700EFF3108B72B66A4A34
:101080001368002BFCD0BFF35F8F0025674B5D57C3
:101090009A46002D00DAA9E06B00654C01935B19BC
:1010A0009B009846A146C1444B4652469B79103658
:1010B0001370604BB6009B6899590B1B2F2B33D9CB
:1010C0005D4B994200D0ACE0019B42469C465B4B95
:1010D0006544AD0063535A4B0232A218043B9B1A7D
:1010E0001B05584A5B0D651913436B80564B012154
:1010F000AB80FF23AB71009BEF71AB604B460B43A2
:1011000019004C4B9B689951BFF35F8FBFF35F8F02
:101110000022454B1A608BF3108805B0F0BCBB462B
:10112000B246A946A046F0BD01200A008243D37909
:101130008C46BB4231D84546130044491B1B5B41DA
:101140005943090D3D4B63533D4B02356519043B33
:101150005B1B1B053B4D5B0D2B43AA464D466B802D
:101160000425AC465546E044131F44441B1B1B0595
:101170005B0D1D434B46997100999D8099604946CE
:10118000DF71334B01431360BBE75800C018800088
:101190002018C179B9422FD902000623D356002B5B
:1011A000F3DA02932B4B61460393131D9A460423F3
:1011B0005B429C46E14450464B461B1A1B055B0DA7
:1011C0009C46204B95719846634640460343938066
:1011D000019B5A199200039BA418A380029B1C4AEE
:1011E000A371009B2260E771A3608AE701F0D4F845
:1011F000002553465D574FE7908802934005131D25
:101200009A46031561469C464046D44463460430E2
:101210002018181AE0230005400D1B021843039004
:10122000C5E701F0B9F84FE7240100D0F94C0020E0
:101230003410002000ED00E0C101001000A1FFFF0C
:101240006410002000E0FFFF01BDFFFFAAAA00001C
:101250000148804701BD0000F0B5DE4657464E46C6
:101260004546E0B50C0083B0EFF3108872B6634AD0
:101270001368002BFCD0BFF35F8F614B61499A6804
:10128000030010339F00D55901938D4243D0A542EE
:1012900054D05D4EAA1B2F2A3DD85C4B9B461B6841
:1012A000994601231A009C4682404B4613401F2258
:1012B00099466346024093409A4680225B465046D8
:1012C0009850BFF35F8FEFF305839B46002B37D019
:1012D000019B5B4501D001F05FF801232A009A438E
:1012E0009068844208D176E04B005B189B00F318AD
:1012F0009868844236D01A00062151560029F3DA44
:10130000844254D04B46002B27D0C02251463F4B3D
:101310005200995019603A4B9B68DD51BFF35F8FC3
:10132000BFF35F8F0022354B1A6088F3108803B03B
:10133000F0BCBB46B246A946A046F0BD0D00EAE7A8
:101340002A0063469A4390688442D5D106201056FD
:10135000130000280ADA0D0031E0802351462B4AA1
:10136000D150D8E706201856002821DB420011187A
:10137000890074188B46A1689960E179D9710621BA
:1013800061569971002924DBA488F11A640524159B
:101390005C44091909051E4C490D21439980131815
:1013A0001C4A9B001178F31899711070AAE713007A
:1013B0005946002914D1FF3191711749918015497F
:1013C0000A789A71154A9B1B5B415A43120D0A70A9
:1013D00098E71149E2E70620105613000028C5DA05
:1013E0000F4A1049D21A083A5002400D0143998021
:1013F0000D4952080A43DA8084E7C046240100D030
:1014000000ED00E0C10100103410002000E100E018
:1014100000E0FFFFF94C002001BDFFFFAAAA000079
:101420006E10002000F0FFFF00F8FFFF70B50124F0
:101430000443EFF30581EFF3108C72B6214A136871
:10144000002BFCD0BFF35F8F1F4B05001F4AED1A26
:101450006D416A43120D1E4D8900AE6852B2765836
:10146000A6421CD00621595691421CD01221595631
:10147000914222D01E215956914220D02A215956FC
:101480000324914210D0134B19781A708171BFF365
:101490005F8F00220B4B1A608CF3108870BDAB6815
:1014A0000D4C5C50EFE700246100091989005B18BE
:1014B000FF21997109499980E5E70124F4E70224A5
:1014C000F2E7C046240100D034100020AAAA000090
:1014D00000ED00E0F94C0020C101001001BDFFFF4C
:1014E00010B5084B084C82B0010000930022052380
:1014F0002000FFF7D3FC002801DB1F23181A02B0DD
:1015000010BDC04694B00010FD4C0020024B9C461C
:1015100061448900016070474000003470B5114C8F
:10152000114DAC420FD2FF262368002B0CD0FFF7E1
:10153000F9FC01002000FFF7E9FFA680BFF35F8FF1
:101540000834AC42F0D370BDFFF7ECFC0100200082
:10155000FFF7DCFF2671BFF35F8F0834AC42E3D3A3
:10156000F1E7C046D8170020E017002010B50400AE
:10157000FFF7D8FC01002000FFF7C8FFFF2323710D
:10158000BFF35F8F10BDC04610B504000120FFF708
:10159000D5FC034BC3189B002360BFF35F8F10BDC6
:1015A00040000034034B9C46614489000160BFF356
:1015B0005F8F7047400000340A4B1968EFF31080CA
:1015C00072B60A68002AFCD0BFF35F8F1B68BFF3B6
:1015D0005F8F00221A6080F3108840BF0020002136
:1015E0007047C046D04C0020F0B5DE4657464E4608
:1015F0004546E0B587B0EFF30583032201251A4085
:10160000954091008846A946B34B03925C58B34B72
:101610001D60B34B04934B46B24843630823E55E19
:10162000002D37DAA3881BB2002B00DBADE0A379D5
:10163000002B00D0EEE00823E05E002820DB430012
:1016400062691B18DB00D3189E68DD68731C00D12B
:1016500011E1A44801004144826A0B69B71A9B1A40
:101660009F4215D30123026A039883401A420FD088
:101670009C4800F0B5FB8D4202DCCCD18642CAD931
:1016800040BF07B0F0BCBB46B246A946A046F0BD7D
:101690000E61EDE762696B0092465B19DB009A44CC
:1016A00053469E68DF6800F09BFB8F42BADC00D196
:1016B00003E1002F00DAE8E05246534652691B6905
:1016C0009346049A934200D1D9E052460821605EC5
:1016D00052880004594610439847009001910099A0
:1016E000019A0B001000134300D1CEE013000A0052
:1016F000B61A9F41002806DB7A4800F071FB009E75
:10170000019F36184F4153469E60DF6000229A5E6B
:10171000002A00DA86E7530099186069C900411869
:1017200002938B68C9689B46B94200DD7AE702D113
:10173000B34200D976E708239C46A4440595654644
:101740002281A446029B2C0006E053009918C90090
:1017500041188D68C968AB469B18DB00C318B942B5
:1017600006DC00D1B3E01C000023E25E002AECDAC4
:10177000230064469C4653461A806346059D1D809F
:10178000A3881BB2002B00DA51E72269EFF3108126
:1017900072B61368002BFCD0BFF35F8F0123A788BC
:1017A0005B42A3803FB22369BFF35F8F00221A60C0
:1017B00081F31088002F00DA39E723000833220074
:1017C0009A4666697B00DB19DB00F318996850467E
:1017D0008C460824115FDD68002910DB029306E0C7
:1017E000AB4244D00023E15E2000002906DB4C0020
:1017F0006418E4003419E368AB42F1DD029B078012
:1018000000201F5E1980002FDCDA1400A379002B62
:1018100000D110E70023A37126000823E15E0836FB
:101820004B1C00D12CE70800A246656902E03E008F
:101830004B1C1AD04B005B18DB00EF180A008C46DB
:10184000E95E7B881BB2002BF1DA01235B42DC17D7
:10185000BB60FC60824205D0534631801B893B80CF
:1018600053461A8160464B1CE4D15446E5E6A36812
:101870006345B7D9C2E76B1C00D0EAE6F8E65B46E1
:1018800058461B69984700281BD153461B8822697C
:101890002381EFF3108372B611680029FCD0BFF3E7
:1018A0005F8F514662880A8022696580BFF35F8F2F
:1018B0000021116083F31088B4E6864200D8F8E670
:1018C000B0E65B461A685B680092019307E7B34590
:1018D00000D848E74CE7C046B43300203C700540D0
:1018E000E91500100040054070B52E4C2569002D0B
:1018F00004D00A212C48FFF709FE70BD2B4E0321AE
:10190000300000F063FAE660FFF70CFB284B03227F
:101910009C46D02322701B061B6801216370254B57
:101920006044A3600F23800020610220638063690C
:101930004942A18019800231198647311D835852CE
:1019400018315A5275325C39995218320131995214
:101950001832013199521832013199520835183232
:101960009D5202311832995218320131995218326F
:10197000013199521832013199521832013199527C
:101980001832013199520C4B0C49DC600130356240
:10199000FFF73EFB01210320FFF702FB084B1D6010
:1019A000A7E7C0467C100020D04C00200040054036
:1019B00040000034FFFF1000B4330020E915001090
:1019C00038600540004870477C100020F8B51F00C3
:1019D00008AB1B7804001600002B08D100F008FAB1
:1019E00032003B00121A8B41002B00DA52E02269D0
:1019F000EFF3108072B61368002BFCD0BFF35F8F3B
:101A00000223E15E63694A005218D2009B182269E2
:101A1000002936DB1D886580BFF35F8F00251560C8
:101A200080F31088069A9E60DF601A61079A5A61F7
:101A30005A8801325204520C101C002A1FD082B264
:101A40005880080410432669EFF3108772B6326895
:101A5000002AFCD0BFF35F8FA2881A80A18023697F
:101A6000BFF35F8F00221A6087F310880A4923783A
:101A70008C4601329A40E36863441A60F8BD012045
:101A8000DDE7BFF35F8F0023136080F31088012030
:101A90004042F3E70020F1E73C20000070B5010070
:101AA0000469EFF3108C72B620680028FCD0BFF3F5
:101AB0005F8F02200D5E4C6968004019C000241839
:101AC0000869002D36DB26884E80BFF35F8F002625
:101AD00006608CF31088E36063880498013320610A
:101AE0005B0405985B0CA26060611A1C002B1FD080
:101AF00093B22804628018430A69EFF3108C72B61F
:101B00001368002BFCD0BFF35F8F8B8823808D8000
:101B10000B69BFF35F8F00221A608CF310880B787B
:101B200001329A40CB6808498C4663441A6070BD04
:101B30000122DDE7BFF35F8F002303608CF3108881
:101B400001204042F3E7C0463C20000010B5438925
:101B50000A1493421ADD53009B184269DB00D31824
:101B60000469EFF3108C72B62268002AFCD0BFF330
:101B70005F8F5A88090494B2090C8A4208D003691D
:101B8000BFF35F8F00221A608CF31088002010BD15
:101B90008022120214435C80012302698371BFF327
:101BA0005F8F002111608CF31088044902788C4605
:101BB0009340C268012062441360E8E73C200000C3
:101BC00040787047F0B5C64600B582B0040000F01A
:101BD0000FF9FA2206000F002000002300219200D6
:101BE00001F01EFC8019794104000D1E02DA012467
:101BF0002E4D644206267642F71736196F41AF42E2
:101C000014D811D000F0F4F832003B00121A8B41C6
:101C1000002B15DC002B46D02000290000F026F90F
:101C200002B080BCB846F0BDA642EBD90026002722
:101C300000F0DEF832003B00121A8B41002BE9DD88
:101C400000F0D6F832003B00121A8B41002B0ADB61
:101C500000230193164B3200009316483B00FFF718
:101C60001DFF0130D8D000233900B0469C46124AEF
:101C70001248536A994204D8966A4645CCD2994292
:101C8000CAD10668EFF3108772B63368002BFCD018
:101C9000BFF35F8F0368BFF35F8F66461E6087F3F5
:101CA000108820BFE5E7002AB6D0C9E7FFFFFF7F15
:101CB000B91500107C10002000400540D04C0020D9
:101CC000F0B557464E46DE464546E0B506000F00E5
:101CD00085B0EFF3058399468B46002B12D0384927
:101CE00000204B6ABB4206D38A6ADB1B591E8B411C
:101CF000B2424041184305B0F0BCBB46B246A946CB
:101D0000A046F0BD2F4B9A46DB68984653461B7899
:101D10004046039300F064F84246039B04000433FA
:101D20009B009B580D001B1A39003000001BA94175
:101D3000894510DC0DD020BF214A0020536A5B4545
:101D4000D9D3926ADB1B591E8B41B24240411843E2
:101D5000D1E78342EFD900F04BF832003B00121A72
:101D60008B41002B1ADB00230193174B32000093A9
:101D700050463B00FFF792FE011E0FDD104B5A6AE2
:101D80005A451BD39B6AB34216D35046FFF7DEFE7B
:101D90000B4A0020536A5B45ADD3D2E7084A0020C6
:101DA000536A5B45A7D30020926ADB1BB2424041D5
:101DB0005A1E934118439EE75A45E6D120BFE4E7F7
:101DC000004005407C100020B915001010B5024AF3
:101DD0000248FFF741F810BDB0B00010382F0020C6
:101DE0000300416A0A00986A596A8A42FAD1704728
:101DF000034B596A0A00986A596A9142FAD17047AE
:101E00000040054070B504000D00174A536A1900E0
:101E1000966A536A8B42FAD13000190024184D415A
:101E2000AB4216D813D0104B2A005B6A9D4203D9EF
:101E30000D494B6A9342FCD3934207D10A4A02E010
:101E4000516A994202D1916AA142F9D370BDA6426A
:101E5000E9D9054B5B6A1C005A1CEFD00122012412
:101E60006442E5175242E3E700400540064A536AE0
:101E70009942FCD807D1044B02E05A6A914202D140
:101E80009A6A9042F9D8704700400540F8B50400BE
:101E900006200D0000F078F9002844D0374B38496F
:101EA000E3185A1E93418022120494465B429B0D14
:101EB000344A9B0563441360334A136018000A6870
:101EC0009043FBD12D4B314AE31859424B418021BD
:101ED0005B0049000620995200F056F92900C00025
:101EE00000F0ACFB0130C3091ED140270122626221
:101EF000A362266BF30722D4E36A254B0620E5187C
:101F000000232B60266300F03FF93900800000F0C9
:101F100095FB7023E26A5A400E3313402B601D4B31
:101F200023630323A364F8BD1B4A93421ED90023F5
:101F30001A4A1B4F6262A362266BF307DCD5194B6A
:101F4000144AE3181A60656AA36A0620AD01ED1809
:101F500000F01AF9144900F071FBAD0201002800ED
:101F600000F06CFB0021FFF74DFFC5E74006800E37
:101F70009F011A003F180300B9E7C0460080FCBF6C
:101F800008C0004000E0004000F00040DC4C0020B1
:101F90002C10000001030000FEFF0000FFFF000006
:101FA000C0FF3F00303000004E0E0000F8B5DE46A6
:101FB0004E4657464546E0B58B4605000A9918003F
:101FC000160000F03BFB0A9B6C001F02324B6419A9
:101FD0009C46A4006444636881469F4200D96760C0
:101FE0002B1FDBB29846012B30D9C02380229B01E6
:101FF000E31812011A60294BAD0059599A4600297D
:102000001BD17301E026226853401E4080234246C4
:102010005B01E3181E60012A30D9802380229B01D6
:10202000E31812011A6053464A4667605A51F0BCE1
:10203000BB46B246A946A046F8BD586900F0FEFA74
:10204000013043001B18033BFDD2DAE75B46012B4E
:10205000CBD1C02303229B01E3181A60023AA36884
:102060001A42FCD07301E0262268AD0053401E40A6
:1020700080230A4A5B019246E3181E605A46216893
:10208000514003220A401A6001225B469A40A3682D
:102090001A42FCD0C1E7C046008000403C2F00201F
:1020A000F0B546464F46D646C0B51F00344B4400F7
:1020B0009C462418A4006444636888461600FF2BDD
:1020C00002D880235B006360031FDBB29A46012BBA
:1020D00030D9C02380229B01E31812011A60294BDA
:1020E00085005959994600291BD17301E0262268C1
:1020F00053401E40802352465B01E3181E60012AB4
:1021000030D9802380229B01E31812011A608023BA
:102110005B0063604B465F51E0BCBA46B146A846DF
:10212000F0BD586900F08AFA013043001B18033BE8
:10213000FDD2DAE74346012BCBD1C02303229B011A
:10214000E3181A60023AA3681A42FCD07301E02631
:102150002268850053401E4080230A4A5B01914655
:10216000E3181E6042462168514003220A401A606B
:10217000012342469340A2681342FCD0C1E7C04607
:10218000008000403C2F0020014B8000C058704769
:102190003C2F0020F8B5040021481E0017000D0058
:1021A00000F04CFA0100380000F048FA069B3604B3
:1021B0001B031E432368002B20DB1A4B1A49E3182C
:1021C0005A1E93418022920194465B421B0B174A90
:1021D0001B0363441360164A13601F000A68974389
:1021E000FBD1144B2560E2182123A0601360236803
:1021F000002BFCDA0823E6601360F8BD3F23226859
:102200001340AB42D9D1A3681B051B0D8342D4D127
:10221000EE22E368D2021340B342CED1EDE7C046CE
:10222000001BB7000040FDBF08C0004000E00040B8
:1022300000F000400430000010B580241C4BE40581
:102240001C6000281AD001231A4C18431A4BDC6179
:102250001A4C44401C62596298628021144BC90593
:102260001960174817490860E021C9041960002A5D
:1022700007D18022144B12061A6010BD0E4BD86194
:10228000EBE753019B1A9B009A18802312015B0411
:102290009A4209D213000D490B60074B5A60802205
:1022A000094BD2051A60E8E7094B1A00F3E7C0466C
:1022B00000B00540D3C007B0008005402D3FF84F67
:1022C000FCFF01000820014000A00540A4330020CD
:1022D000FFFFFF008023024A9B000B43D36270473D
:1022E00000800540002310B50100988A1B8B984799
:1022F00010BDC046162310B50100188802331B8894
:10230000984710BDF8B54746CE4680B50F1E18D089
:1023100014239946043304000025012698464B46B1
:102320001888434621681B88984701C4431E98417A
:1023300001350640AF42F2D13000C0BCB946B046CC
:10234000F8BD0126F8E7C046002370B504000D0073
:10235000988A05491B8B984703000020002C01DB5D
:102360000130A0402900984755420000AA23064AA0
:102370001B0113608D235B00D3600449044B19607B
:102380005368002BFCDA70470040024000B0FA00AE
:10239000006002407047C04610B50148FEF744FD9A
:1023A000D4B0001070B5074D074EB54209D20024D5
:1023B000013E761BB60808CD984723000134B3428E
:1023C000F9D170BDA8AF0010E4AF0010054B064A6C
:1023D00006491A60064A074B1A6010000B689843BA
:1023E000FBD1704700E00040BFCDFBFE08C00040BD
:1023F000FE7F3C0000F00040044BDB6C002B03D15F
:102400008022034BD2021A607047C0460000115070
:102410004C201150044A054B1A60054A1368DB0131
:102420008033FBD17047C046FFFFFF0100F0004042
:1024300008C000404022034B9A675A671A67DA6661
:102440007047C04600F0014010B5FEF789FD10BD91
:10245000F8B52749274C284D641AA6103200302EB3
:1024600000D930222800920001F08AF8BC2C3BD819
:1024700030202F232C196407204A801BE40F9B1B5C
:10248000052B16D93700002C02D0B300771CEA5078
:10249000001B33199B004108EB18C900C9181A60CA
:1024A0005A6008339942FAD1012303421CD0984361
:1024B000C619B300EA50731C2F2E15D09B00EA50AA
:1024C000B31C2E2E10D09B00EA50F31C2D2E0BD0E7
:1024D0009B00EA50331D2C2E06D09B00EA50731D42
:1024E0002B2E01D09B00EA50054B9D60F8BDC046E5
:1024F00000010010C001001000000020C101001008
:1025000000ED00E0002310B5294C82B0A367FFF76F
:102510002DFF0122274B1A60636C012BFCD1032293
:10252000254B1A60224A936B012BFCD10133009397
:102530000121224A22480433FFF72CFE0523012102
:102540000093204A2048FFF725FE002202210420A4
:102550001E4BFFF7A5FD0022012105201C4BFFF7B4
:102560009FFD0022002107201A4BFFF799FD002252
:1025700000210820174BFFF793FD8023DB00009319
:10258000002200210920134BFFF710FD0022104B01
:1025900000210620FFF784FD0420FFF7F5FD0E491A
:1025A00000F04CF801000020FFF794FE02B010BDCF
:1025B000008000403CB0004030B00040002F68591F
:1025C00000800240008C864700C00240001BB7001C
:1025D00040597307006CDC0240420F00014804219F
:1025E000014B1847A010002005230010124A936FDA
:1025F0009B0815D29066D166002905D0FFE7FFE75A
:10260000FFE7516F106F704704B580210906C217AC
:102610005140002800D0C84308F06EFC002104BDE2
:10262000F0B5146E556E576F166FFFF7E3FF146623
:10263000556657671667F0BD000000D0114A936FCA
:102640009B0813D210665166002905D0FFE7FFE70B
:10265000FFE7516F106F704704B5002801D00020CC
:10266000C04308F049FC002104BDC046F0B5146E1B
:10267000556E576F166FFFF7E5FF1466556657677F
:102680001667F0BD000000D094464A4A926F920847
:10269000624601D228E0C046F0B5464E346E756EF3
:1026A000776F366F00F020F89446424A14665566FC
:1026B000576716676246F0BD94463E4A926F92088D
:1026C000624601D254E0C046F0B53A4E346E756EA3
:1026D000776F366F00F04CF89446364A14665566AC
:1026E000576716676246F0BD002B24DB11D0002926
:1026F0003EDA00B5C943404200D1013100F038F85C
:10270000C943404200D10131DB43524200D1013381
:1027100000BD002AEBD1002801D1002905D00020FE
:10272000C90FC90701D1C043410800B508F0DCFB5F
:102730000022002300BD00B500290ADBDB43524222
:1027400000D1013300F014F8C943404200D10131F7
:1027500000BDC943404200D10131DB43524200D1A8
:10276000013300F005F8DB43524200D1013300BDD4
:10277000002923D1002B18D1002A0CD0BC460D4FC4
:1027800038667A6600210023FFE7FFE7FFE77A6FEC
:10279000386F67467047002801D00748010000B530
:1027A00008F0A2FB0022002300BD02000B00002065
:1027B00000217047000000D0FFFFFFFF002B00D07A
:1027C000BFE0130C28D1002AE7D080B4114F39663E
:1027D0007A66FFE7FFE730B4040C7B6F396F1B04A8
:1027E00023433B667A66FFE7FFE7FFE7C04684B214
:1027F0007B6F3D6F1B0423433B667A66FFE7FFE771
:10280000C04600232C042D0C7A6F386F00196941E3
:10281000B0BC7047000000D0F0B594460025140EFF
:1028200001D112020835140F01D112010435940FA1
:1028300001D192000235D40F01D152000135D40BE1
:102840000134254F7C66254C3C660E0C93B2FFE7A5
:10285000FFE7FFE73C6F6643360C7703BE467343E2
:10286000DF0B5B04C01AB941130C7343DB18C91AA0
:10287000CE086643360CB64493B273431F0F1B0158
:10288000C01AB941130C73431F0B1B05C01AB94181
:10289000860D8F023E436643360C092D24DB520A17
:1028A0007243801A7703460A6643360C16235B1B75
:1028B000DE40DF40BF1964466643821B7046043524
:1028C00006330100D940A840C01900D30131A2420B
:1028D00006D20023F0BD0000000000D0FFFFFFFF84
:1028E000121B0130F3D3F1E709277F1BFE4064463A
:1028F000A2B27243801A00D20139220C7243130C27
:102900001204821A99410B007046043513370100F6
:10291000F940A840801900D30131002B02D1A24216
:102920000AD2F0BD013000D30131121BFAD2013BB3
:10293000F8D1A24200D2F0BD013000D30131121B08
:10294000F7E7F0B51C0C00D080E00CB400251C0AA1
:1029500004D11B02160E3343120208351C0B04D19E
:102960001B01160F3343120104359C0B04D19B004D
:10297000960F334392000235DC0B02D192185B4173
:1029800001351C00971864410134464F7C66464C63
:102990003C660E0CFFE7FFE7FFE7C0463C6F66436F
:1029A000360C7703BE4697B27743C01B00D201397D
:1029B000C01B00D201399FB27743C91BC91B170C3A
:1029C00077437E04FF0B801BB941CE086643360C6B
:1029D0000C2D33DBB644120B1F053A431B0B97B289
:1029E0007743C01B00D201399FB27743C91B170C34
:1029F00077433E043F0C801BB941860D8F023E4356
:102A0000664329277F1BFE400C3D7746AF40BF1928
:102A100030BCA2B2ABB272437343801A9941220C0C
:102A20007243130C1204801A994102000B00013703
:102A3000001BA941F9D2781E0021F0BD0C277F1B95
:102A4000FE4077467F0BAF40FF19E0E700245D1C96
:102A500007D0144F7D663966FFE7FFE7FFE7FFE722
:102A60003C6F95B29EB265436643401BB141150C65
:102A70001E0C6543664336042F0C3E432D04401B59
:102A8000B141994204D202000B0020000021F0BDA8
:102A900001D19042F7D3801A994101349942F2D37F
:102AA000F6E70000000000D0FFFFFFFF4840414074
:102AB000484018B41B4B5B68FC46019308BD04DF1B
:102AC000EF2D001018B4174B1B68FC46019308BD8E
:102AD00000DFF92D00109446134A926F920809D234
:102AE000624618B40F4BDB68FC46019308BD0CDF4F
:102AF000B13000100C4AF0B5146E556E576F166F5A
:102B00006246FFF7EEFF084A146655665767166778
:102B1000F0BD18B4034B9B68FC46019308BD08DF69
:102B2000552F001068190020000000D0FFB550405C
:102B30004240504059404B40594000E0FFB5154FCE
:102B40004C00640D03D0BC4204D10C0314D8002007
:102B5000090D09055C00640D03D0BC4204D11C03BF
:102B60000AD800221B0D1B0501264B4009D44B40FF
:102B700003D58B4200D18242FFBD9942FCD19042E5
:102B8000FFBD0B43DB1803431343F5D0C94349187A
:102B9000FFBD0000FF07000000B5FFF7CFFF01D029
:102BA000002000BD012000BD00B5FFF7C7FF804138
:102BB00000BDC04600B5FFF7C1FF01D9002000BD30
:102BC000012000BD00B5FFF7B1FF01D9002000BD15
:102BD000012000BD00B5FFF7A9FF804100BD012025
:102BE00040054A00121804D85A00121801D80020D3
:102BF00070470120704700000021002805D1704770
:102C0000C1174840401AFAD0C90713B5064B1B68D4
:102C100098470CBC441CA2401005120B0349091B29
:102C200009051943114310BDCC4C00201F040000BE
:102C300010B54C00620D8023D218DB00D21A5B0560
:102C40007E2A10DD9E3A13DACC170903490819438E
:102C50005242D140640001341532202A05DAD040B6
:102C60000843604310BD002010BD0846604310BDFE
:102C7000C80FC018013810BD18B4044B5B6AFC467D
:102C8000019308BD24DF61320010000068190020A4
:102C900018B4044BDB6DFC46019308BD5CDF6D335B
:102CA0000010000068190020C94211D300B5490086
:102CB0004908002200F018F8002904D400224042FC
:102CC0008A41114600BD80210906002000BD000098
:102CD00018B4044BDB6EFC46019308BD6CDF6F3209
:102CE000001000006819002018B4044B9B6FFC46CC
:102CF000019308BD78DF8B320010000068190020B6
:102D000018B4044BDB6FFC46019308BD7CDFF9323D
:102D10000010000068190020132370B51D78012DE4
:102D200019D014DD1F48FFF7E5FA06001E48FFF72B
:102D3000E1FA1E4C80223100200000F021FC022D1F
:102D40002DD01B48FFF7CEFA1A4B186070BD1A4BF6
:102D5000164CA364F5E7184B144C23606360A36022
:102D6000E36023616361A361E36123626362A36241
:102D7000E36223636363A363E36323646364A36421
:102D8000E36423656365A365E36523666366A36601
:102D9000E36623676367A367E367A364D1E7064B32
:102DA000A364CEE753440000534600006819002096
:102DB0004C330000CC4C0020BD2D001007B5604600
:102DC00001880A0A0230DF2AFAD1C9B2820804D384
:102DD000028840880004104300E00068014A505017
:102DE000039007BD681900200FB403BC0CBCF0B5FC
:102DF0000124E407634000E0F0B50C0DCF0F661E20
:102E00003605891B640503D3C943404200D3013111
:102E1000640D03D0661CF60A07D0E41B00207F0077
:102E2000791C89078912803C24031D0DDF0F6E1E5B
:102E300036059B1B6D0503D3DB43524200D30133A0
:102E40006D0D03D06E1CF60A07D0ED1B00227F002B
:102E50007B1C9B079B12803D2D032F1B661B58D4A8
:102E6000A446202E46DA20371400BC401D00BD4089
:102E7000F24033412A4380185941CB0F05D0C94352
:102E8000C043002264425041514162464D0D28D159
:102E90000D0D07D100281FD0241940414941013AA6
:102EA0000D0DF9D0640006D3013000D30131002CA0
:102EB00001D140084000013A0BD4941CE40A04D12B
:102EC00012051144DB071944F0BDD907204B194303
:102ED00000E0D9070020F0BD0029DDD1002CDBD1B6
:102EE000F0BD0132C6074008CD0728434908002E2F
:102EF000E1D0D9E73C2E29DA203E40371400BC400F
:102F000000D00124F24014431A00BB401C43D317E5
:102F1000ACE7AC46202F08DA20360400B4400D00A0
:102F2000B540F84039412843A5E73C2F0CDA203F53
:102F300040360400B44000D00124F84004430800A7
:102F4000B1400C43C117EAE710001900002494E7D0
:102F50000000F07FF0B50C0D661E3605891BE60AF1
:102F60006405640D02D0651CED0A04D00020012127
:102F70000905803C2403A4461C0D671E3F05DB1B8E
:102F8000E70A6405640D02D0651CED0A04D0002236
:102F900001231B05803C24037740644497B484B22A
:102FA00096B27443070C7E43150C6F4380B268439E
:102FB000361802D3012000043F183004350C0019E4
:102FC0007D41844688B29AB250430C0C62431F0C78
:102FD0007C438EB27E43921902D301263604A41993
:102FE0001604170C3618674101BC81B29AB25143DE
:102FF000040C62431B0C5C4380B25843121802D38A
:103000000120000424181004130C401863412D18EB
:103010005E410020474106BC88B293B258430C0C75
:103020006343120C544389B251435B1802D301210C
:103030000904641819041A0C091862416D185641E4
:103040000020474118BCF902720D1143F0026A0DCD
:103050001043ED020A0D03D16D1940414941013B76
:10306000124E9B1B7600B3420ED26D0007D3013087
:10307000002671416646354301D1400840001B05DA
:10308000C918E4072144F0BD0BDA013306D1013041
:1030900004D101314F0D01D04908F2E7E1070020CA
:1030A000F0BD013631050020EBE70000FF03000012
:1030B000F0B51C0D671E3F05DB1BE70A6405640DB8
:1030C00002D0661CF60A04D0002201231B05803CB6
:1030D0002403D0252D060026F6432E661E096E66B3
:1030E000CE0FF619B44649004F0D02D07E1CF60AE9
:1030F00003D000200021403F3F033E1BB600B444F4
:10310000013F7F05C91B49082E6F013676089C02D6
:10311000950D25437543ED137543AD1301356D10C2
:10312000F603761B0CB4CC02450D2C43A2B2B3B20D
:103130005A43270C7B43350C6F43A4B26C431B19D5
:1031400002D3012424043F191C041D0CA4187D4142
:1031500024196D41009A91B2ACB26143170C7C43C3
:103160002B0C5F4392B25A43A41802D301221204DB
:10317000BF182204230C52187B41019C6C431B197D
:10318000520ED9010A434401A01A81B2B2B251438E
:1031900003145A43360C734387B27743D617D219B8
:1031A00000277E4136049B191704160C7F185E41D8
:1031B0007316ED18F301002680337541A90F06D16F
:1031C0006400690AE8055B0A184309D22FE004226B
:1031D000944480337541A90AA8059B0A184326D355
:1031E000404149412404009A019B0D005543641B52
:1031F0004343E41A95B286B27543170C7E43030C21
:103200005F4392B25A43B61802D301221204BF1888
:103210003204330C52197B4152429C41002C02D49F
:103220000022013051414008CA071043490802B04A
:103230006246D7079210084BD218084B9A4203D225
:1032400012058918C919F0BD0020002A01DC3900D7
:10325000F0BD01331905F5E7FD030000FE0700008E
:10326000002200B5203200F010F8080000BD002256
:1032700000B500F00CF8CA179A4200D100BDD8433F
:103280000121C907414000BD00220B150AD410B529
:10329000944600F0A7F81414013400DA0021CB178B
:1032A000144C20470020002170476244343A0CD46B
:1032B0000C2A07DA04009140904052422032D44058
:1032C000214310BDD843D94310BD203207D40C464A
:1032D0009440524220321141D040204310BD08009A
:1032E000C917203203D452422032104110BD1800B9
:1032F000190010BDAB3200104A00520D144BD21A07
:1033000013DDFF2A1EDAD205CB0FDB071A43C300F9
:10331000400F0903490A084310435B0001D301D061
:10332000013070474308FBD2704702D0C80FC00776
:1033300070470A0312130132F8D1420F072AF5D160
:10334000012200E0FF22C80F00028018C00570476C
:103350008003000000210A00002104E000210A008F
:10336000C11704E00022002306E0C0460022CB176C
:1033700058405940C01A994130B5184CA21A00293A
:1033800003D1010010D00020203A4C1512D104D2F4
:10339000013A001849414C0DFAD3114CA24204D213
:1033A00012058918DB07C91830BDD243520D002021
:1033B0000021F5E703D4013A00184941FBD50B324F
:1033C0004405C00A4D052843C90A640003D00024FF
:1033D00060416141E1E7E0D34408F8E732040000CE
:1033E000FE0700000A0DCC0F531E1B05C91A52051B
:1033F00003D3C943404200D30131520D03D0531CC3
:10340000DB0A07D0121B00206400611C89078912A7
:10341000803A1203014BD21A70470000FF030000EC
:1034200051434343C9188C46110C83B24B4310B42B
:10343000040C614392B280B2504362431C041B0CE3
:10344000001910BC59411304120CC01851416144B9
:103450007047000007B548404140484001E0C04681
:1034600007B54200120E03D0FF2A03D1420218D83A
:10347000C00DC0054A00120E03D0FF2A03D14A0234
:103480000FD8C90DC9050122414005D4414001D5DD
:10349000814207BD884207BD0143491801D0C0439E
:1034A000001807BD00B5FFF7DBFF01D9002000BD04
:1034B000012000BD01231B064200D21804D84A0097
:1034C000D21801D80020704701207047132310B58F
:1034D00012481C78FEF70EFF0100012C0AD003DD14
:1034E00080220F4800F04CF80E48FEF7FBFE0E4B12
:1034F000186010BD0A4C5422200000F041F80B4B1C
:103500006365A365E36523666366A366E366236775
:103510006367A367E3672362E361E5E7534600005F
:10352000681A00204C330000CC4C002031350010CC
:1035300007B5604601880A0A0230DF2AFAD1C9B20B
:10354000820804D3028840880004104300E0006829
:10355000014A5050039007BD681A002010B506F0CC
:1035600031FD10BD01480421014B1847B010002067
:1035700005230010014B1B6818470000B010002005
:10358000014B5B6818470000B01000209A4200D23F
:10359000885470477047C046F8B55746DE464E46D9
:1035A0004546E0B599460A9B07009A460D9B88461A
:1035B00093460B9C9B073BD10C9B9C423DD21E1B10
:1035C0000B9415000C005E442A004B460135210087
:1035D0002020B847B542F7D1A0460B9C002C20D044
:1035E000454636195346321B013C185D29004B46AF
:1035F000B847002CF6D12B00350098460D9B9B0751
:103600000FD55B46EC1A0C9BA3420AD94646984656
:103610002A004B46310020200134B847013544458B
:10362000F6D32800F0BCBB46B246A946A046F8BD7A
:1036300016001500002CD3D1E0E716001500002C71
:10364000CED1EEE7F0B54546DE4657464E46E0B5EC
:1036500085B09C4610AB1B78149F934698460F9CF0
:10366000129E139DBB074CD4002D42D1B44248D2C8
:1036700001233B4099460E9B013B9A46302304E0D0
:10368000524601341355A64201D9202CF8D14B469D
:10369000002B00D183E00E9B013B99463023A542CD
:1036A00005D82EE04A4601341355AC4229D0202CCF
:1036B000F8D1FB060CD57B0554D4A64263D0A542B5
:1036C00061D0119B102B50D0022B57D0202C32D11F
:1036D000202301930E9B5A4600930397634602955D
:1036E000FFF75AFF05B0F0BCBB46B246A946A0465C
:1036F000F0BD01233B40994601233B422AD1B4420D
:10370000B9D3FB061CD57B05DBD4002CD5D1119B8E
:10371000102B5BD0119B022B6BD0302301240E9A0F
:1037200013704346002B10D17B073ED52B260E9AF3
:10373000631C1655CDE72300013430260E9AD6546B
:10374000202CC5D04346002BEED02D260E9A631CAC
:103750001655BEE74346002B2FD0013DB44200D2A0
:1037600089E798E7119B102BB2D1BB0637D5202CE7
:10377000AED058230E9A13550134A7E7202CA7D0BA
:103780002300013407E0631E012CC0D0119A102AD7
:1037900031D0022AD1D162260E9AD65496E7FB0682
:1037A000CED57B0500D488E78BE723003E0790D574
:1037B00020260E9A013316558BE70C233B405A1EE8
:1037C0009341ED1AB44200D255E764E7BB060ED42C
:1037D00078230E9A0224137030235370A1E7202C13
:1037E00000D175E778230E9A135501346EE75823FC
:1037F000EFE76033EDE70E9AA61E91464E44BA06F7
:1038000002D55822327098E77822327095E7C04688
:1038100010B5002800D110BD01F0A2FCFBE7C046A6
:10382000F0B55746DE464E464546E0B595B0834670
:103830000F00924698461E9A1F9B10001900209E6A
:10384000FFF7CDF9002800D0EAE11E981F99012268
:10385000C54B5242FFF7A8F9002800D014E11E988A
:103860001F990122C14B5242FFF7B4F9002800D042
:10387000E9E01E981F990022BD4BFFF7ABF9002825
:1038800000D0C8E01E981F990022BA4BFFF78CF9B0
:10389000002800D0BFE01E981F9900220023FFF7E8
:1038A00083F9002800D0E4E000230B93229B5B0502
:1038B00000D406260024302307E0172106AA01348D
:1038C00052181355013E202C01D0092EF5D81E9810
:1038D0001F99FFF7ADF9A84BF2009B181A685B68B7
:1038E000050008920993FFF78BF902000B001E9860
:1038F0001F99FFF7DEF8089A099BFFF70AF906906F
:103900000791FFF7B9F98146FFF776F902000B003E
:1039100006980799FFF7CDF80022984B069007917B
:10392000FFF758F9002800D10DE101239C46E1443E
:103930004846FFF761F902000B0008980999FFF764
:1039400039F9002802D0002399460135002E00D114
:10395000D9E006954D46B94614E006AA94461723C9
:103960000A216344280001341F19FEF767FE303135
:10397000397028000A21013EFEF760FE092D00D8AB
:1039800017E10500202CE8D14F46069D20240CAEFF
:1039900006AA17239446634499465B46B3460693AA
:1039A0000FE04B4628000A210134E618FEF71EFE00
:1039B0003031280031700A21FEF718FE051E00D1B3
:1039C000E4E0202CEDD1069B5E469B460323229A21
:1039D0001340012B18D1219B002B15D00B9B002BE2
:1039E00000D1FDE0219B013B2193202B0CD93023FA
:1039F000219A07E0172006A9013409180B559442B3
:103A000000D3CCE0202CF5D1229B01940393219B81
:103A10000096029322E0229B52460493219B390098
:103A2000039358461E9B1F9C0296009301944346A5
:103A300000F04AF90400200015B0F0BCBB46B246C5
:103A4000A946A046F0BD229B5B070FD403224C4B36
:103A50002299019203912199009302914346524683
:103A600039005846FFF798FD0400E4E70422454B6F
:103A7000EEE71E9A1F9B00200021FFF71AF8012392
:103A80001E901F910B9311E7229B54469B0711D167
:103A9000219B042B0ED9219B55469C465E46043C37
:103AA00064442A004346013539002020B047A5422E
:103AB000F7D1B346344D26002B1F99465B46A346EB
:103AC0001C003200E87843463900013DA04701362A
:103AD0004D45F6D123005C469B46229B04349B0750
:103AE000A9D55346219AE31A9A42A4D95E461500F5
:103AF0002200434639002020B04753460134E31AE0
:103B00009D42F5D897E72800FFF77AF802000B00EE
:103B10001E981F99FEF7CDFF0022184B06900791C3
:103B2000FFF742F80CAE002800D031E7069807995D
:103B30000022124BFFF74EF8002800D028E701239F
:103B400001359D4324E70022069807990B4BFFF7A8
:103B50002BF8002800D0F9E64B46002B5CD101235E
:103B60009C46E144F2E6C046FFFFEFFFFFFFEF7F18
:103B700065CDCD4165CDCDC1C8B400100000E03F9A
:103B800028B1001020B1001030B10010069B5E4635
:103B90009B460323229A1340012B00D181E0202C65
:103BA00000D131E70B9B002B27D02D233355013457
:103BB0002AE74F46069D202C00D1E7E63022331934
:103BC00007E0172006A9013409180A55202C00D156
:103BD000DCE6A342F5D12E220CAE0134F254D7E636
:103BE0000C23229A134257D0219B013B2193A342DD
:103BF00000D9FCE6202C00D106E7229B5B0703D509
:103C00002B2333550134FFE6229B1B0700D4FBE630
:103C1000202333550134F7E6DB0700D496E69EE710
:103C2000229B55469B0711D1219B032B0ED9219B2B
:103C300054469C465E46033D65442200434601349B
:103C400039002020B047AC42F7D1B346B9465F46B1
:103C50001C4EEC1C2A00B078434649460135B84753
:103C6000013EAC42F6D1229BBB464F469B0700D497
:103C7000E1E65346219AE31A9A4200D8DBE65E4613
:103C800015002200434639002020B0475346013436
:103C9000E31AAB42F5D3CEE6219BA34200D9A6E6B8
:103CA000B2E6219B002B00D179E70B9B002B97D02C
:103CB000219B013B21939C4200D298E6202C00D00E
:103CC00073E7A1E62CB10010F0B5DE4657464E462C
:103CD0004546E0B599B081468B4692469846229A71
:103CE000239B10001900FEF77AFF002800D0CAE0DD
:103CF000229823990122824B5242FEF76BFF002843
:103D000000D0C0E02298239901227E4B5242FEF758
:103D10004BFF002800D0B6E0229823990022002310
:103D2000FEF742FF002800D0C9E1229B239C0893A4
:103D30000994089809998023269ADB001A400D926D
:103D40008022269C1201144022000B94269C07001E
:103D50000E001C4200D0ADE00B00034300D0D5E0C4
:103D6000002A00D00AE222000633249302231340E3
:103D70000C930223134200D002E2259B042B00D2B5
:103D80000FE2043B0B93002304250A9300222298A0
:103D900023990023FEF708FF002800D003E25A4BC6
:103DA000269A134004930B9B0393249B0293089B36
:103DB000099C009301945946434652464846FFF7F2
:103DC0002FFD02002020269B1F27034059424B4114
:103DD0005B421840531C0893594643464530C84738
:103DE0000A9AD317D4185C40D30F0A936B1E0B9317
:103DF00008AB9C460025674401E0202D0FD0200031
:103E00000A21FEF71BFC01357E193031317020008C
:103E10000A21FEF713FC26000400092EEDD8052325
:103E200006930B9B59460593002304930A3303938F
:103E30000A9B4846029310AB0093089A43460195AB
:103E4000FFF700FC0C9B002B2DD05346C41A259B7A
:103E5000A34228D94D465F4681461E00534639008D
:103E60001A19202043460134A847A642F6D85346E3
:103E700048462599C21A01320023914200D386E1B7
:103E8000013018180FE0269B0493259B0393249B75
:103E90000293229B239C0093019443465246594629
:103EA0004846FFF7BDFC19B0F0BCBB46B246A94678
:103EB000A046F0BD01432BD10B9B2200002B00D16B
:103EC00054E700230A93249B0A9A0024934200DDBE
:103ED00085E12298239900220023FEF765FE002841
:103EE00000D035E1269B084A02941A408023DB006B
:103EF00013430493259B0393089B099CCBE7C0467F
:103F0000FFFFEF7FFFFFEFFFFFF7FFFF0623249385
:103F1000B44B70009C46400D6044FEF771FEB24AFF
:103F2000B24BFEF7F6FDB24AB24BFEF7CBFD3603BD
:103F3000B14B360B334304000D003800190000224A
:103F4000AE4BFEF7B6FDAE4AAE4BFEF7E2FD020009
:103F50000B0020002900FEF7B5FDFEF769FE0A9070
:103F6000FEF74EFEA84AA94B04000D00FEF7D1FD56
:103F70000022A74BFEF7A6FDFEF75AFEA54A060053
:103F8000A54B20002900FEF7C4FD040030000D0001
:103F90000C96FEF735FEA14AA14BFEF7BAFD0200D2
:103FA0000B0020002900FEF784FD02000B00060034
:103FB0000F00FEF7AEFD320004000D003B003000A4
:103FC0003900FEF77FFD00220E900F91954B2000E7
:103FD0002900FEF780FD0022934BFEF773FD0200DF
:103FE0000B0020002900FEF776FD00228F4BFEF724
:103FF00069FD02000B0020002900FEF76CFD0D009A
:104000008021040032003B000020C905FEF751FD6D
:1040100002000B0020002900FEF754FD02000B00F7
:104020000E980F99FEF757FD0022734BFEF74AFDDD
:104030007F4B0C9C9C46644400222305FEF769FDDF
:1040400006000F0002000B0008980999FEF7ACFD6E
:1040500000280AD00A9B3000013B39000A93002255
:10406000714BFEF738FD06000F000A9A33006332E9
:104070003900C62A12D802222698042510400B9A2D
:104080000C90002A25D1259B042B05D9002800D0AF
:10409000A1E0259B043B0B93042541E002222698D6
:1040A00010400B9A0C90002A12D1259B052B76D933
:1040B000002872D1259B0525053B0B9334E0802217
:1040C00012069446229B0893239B6344099330E68F
:1040D00005250B4300D1F6E608980999554A564B39
:1040E000FEF770FD002808D0089809990022534B6C
:1040F000FEF75AFD002800D0E5E6249B002B1CD0DB
:104100000D9B002B19D0249B013B2493259BAB4294
:1041100004D90C9B002B5AD002230C9300230B9341
:104120000A9B002B00D131E60898099932003B0028
:10413000FEF7D1FC0890099128E6259BAB42EDD90A
:104140000C9B002B43D000230B9302330C93E7E727
:104150008020269B3A4A00061A4080238446029417
:10416000089C099D2900DB0013430493259B6144AF
:10417000220003930B00009201938EE60524A8E62B
:1041800000230B930A93023304250C93FEE5534658
:104190008C46013B63441B1A72E602230C930525EF
:1041A000C2E70423EDE58020089E099F0006390040
:1041B0008446269A224B6144134004930B9B3200A1
:1041C0000393249B02930B0000920193F3E5259B3C
:1041D0005B1B0B93A4E7022304250C93A0E79C1A16
:1041E000013C76E601FCFFFFFB799F501344D33F6F
:1041F000B3C8608B288AC63F0000F03F0000F83F3C
:1042000061436F63A787D23F71A379094F930A4037
:104210000000E03F1655B5BBB16B0240EF39FAFE26
:10422000422EE63F00002C400000244000001840D1
:10423000FF0300002D431CEBE2361A3F80842E4121
:10424000FFF7FFFFF0B5DE4657464E464546E0B560
:10425000A5B01E002E9B92460C93CD4ACD4B8046B6
:104260008B461A60002900D1EAE100233078994694
:10427000002800D1ECE1C84B4C460B93C74B454698
:1042800057460E930AE0631C984622003B005946AD
:10429000A84744463078002800D187E00136252819
:1042A000F1D108239A46043B9946023B9846013BCC
:1042B00000229C460D943078711C0300203BDBB239
:1042C000102B03D80B9C9B00E3589F460300303B08
:1042D00089460D9C092B3AD9002398462A2800D1FB
:1042E000C1E000239A462E284BD00300683BDBB286
:1042F000122B1ED80E999B00CB589F4663460E008A
:104300001A43D8E743460E001A43D4E74B460E0043
:104310001A43D0E710230E001A43CCE753460E0091
:104320001A43C8E780235B001A43FF3B9C46707822
:10433000E1444E4667284FD82428A4D90300253BE2
:10434000DBB2422B9FD896499B00CB589F46002357
:1043500094461E0000E00131B3009B195B001E185B
:104360000878303E0300303B092BF4D90123624624
:1043700089469C460023B0469A460E00E1442E280A
:10438000B3D13021802049428C46C000024370786E
:104390004B4684446146092900D86CE12A2800D1A3
:1043A0007AE101239C464E46E1449EE7A146A84699
:1043B000BA46CA4503D801235B4253449946534643
:1043C0004A4659460020C047200025B0F0BCBB46F5
:1043D000B246A946A046F0BD0300693BDBB20D938F
:1043E0000F2B00D94FE7012199408C466D49894632
:1043F00061464B4619400F91634649460B4200D037
:1044000028E10D9B0A2B3AD0072B00D03BE70C9BF1
:10441000190008C98846002B00D14BE12120024336
:10442000914614A98C461F220F2162448C465146A6
:104430000D950C91A24615000F9902E020290CD091
:10444000130064461C4020003730092C00D8073880
:10445000013168541A090F2BF0D80C9B54460D9D5E
:104460009A460F9133E10C9B02CB8846002947DB2B
:104470000C9301239C4670784E46E14431E70C9B37
:1044800002CB14935346002B00D138E19C460878A8
:104490000B000C908C44002801D100F098FC894658
:1044A0006146944603E05A780133002A01D08B42DA
:1044B000F9D1494662465B1A0C900F93530500D51B
:1044C00020E10223180010400D90134200D1CBE3ED
:1044D0000D930B1BB1469A465E460C9822003B009A
:1044E0003100A84753460134185D0028F6D1B34681
:1044F0004E460D9B002B00D0C7E1149B0C93C9E6E0
:104500000C9301239C462838494202438846707820
:104510004E46E144E5E670786C2800D17FE18023C7
:104520005B001A43FF3B9C46E14402E780239B006B
:104530001A4301239C467078E144FAE670786828B3
:1045400000D173E180231A437F3B9C46E144F0E6AF
:10455000672800D103E1472800D15AE1452800D15E
:104560005AE10492072142460C9B039207335246BC
:104570008B43190002920CC92800009201930C9100
:1045800022003B005946FFF79FFB040082E6C0462D
:1045900045420010A033002028B300106CB3001077
:1045A000B8B3001041900000462800D1DBE004922F
:1045B000072142460C9B0392073352468B43190056
:1045C00002920CC92800009201930C9122003B003A
:1045D0005946FFF725F904005CE6631C9846220063
:1045E0003B0059462520A847444653E60C9B04331C
:1045F0000D93631C9946920700D422E10C9B220084
:10460000187859463B00A84743464444012B00D83C
:1046100085E23300B8462E005F4625004C46994699
:1046200022004346013439002020B047AC42F7D184
:104630002C00BB46350047464E460D9B0C9329E6A1
:10464000DB4B3078984600239946002800D012E6CC
:104650000024AEE66F2800D188E000D80BE31023D9
:10466000782800D1CFE09A430A239C4600230F9379
:104670000A330D9380E05646B10089194900013391
:104680000E181878303E010030390929F4D9B246A5
:104690001E000133994628E60C9B023602CB8A465F
:1046A000C9435046C917084082460C933078731CA2
:1046B00099461AE610231000984311331843814697
:1046C00080201300C0000340024200D1A9E64B46FF
:1046D0000693082305935346049310230393002362
:1046E00002930F9B220001931CAB009359463B00A1
:1046F0002800FEF7A7FF434604000C93CAE50123F8
:104700005B42C3E60F9B534501D953460F930223E7
:10471000180010400D90134200D1B7E10D93D1461F
:104720000B1B9A463300A1442E0022004D460C98E4
:10473000B9465F469B4608E04B463900541CB047DB
:104740005346185D002877D022009542F4D15B468D
:10475000BB464F46A94635004C461E00C9E680239D
:104760001B011A43FDE620231A4320E708239C4639
:1047700000230F9308330D9380231100DB001940B1
:104780001A4200D116E10D239A4310008023020043
:104790009B001A401492184200D0C2E1802302000C
:1047A0005B001A4091460C9A04320F92184200D0D6
:1047B000B7E2430600D59FE1030600D419E30C9B42
:1047C0001B880993002B00D0FCE11033984300298B
:1047D00000D1F7E1002399464346059353460493DD
:1047E0000D9B069003930023D2E0582808D062283E
:1047F00067D102239C4600230F9302330D93BBE73E
:1048000020231A43103B9C4600230F9310330D9333
:10481000B2E780231B011A4320231A43A1E6C023D9
:104820009B001A43F31C9946B07882E5C0231A43D3
:10483000F31C9946B0787CE535005E46BB464F4692
:1048400057E64346012B00D863E1631E43449A4672
:104850003300B9462E005F4655469B46A2462200CD
:104860004B46013439002020B047AC42F7D1350027
:104870005E46BB464F46A14654460C9B4A461878B6
:1048800059463B004444A847D7E6A1460F9B9845AC
:1048900000D832E64444E41A3300B8462E005F469E
:1048A00025004C4699462200434601343900202019
:1048B000B047AC42F7D12C00BB46350047464E46C8
:1048C0001BE680231000DB0018401A4200D10FE1E4
:1048D000112118008A430D920D9A802311009B002C
:1048E00019408C461A4269D1802311005B0019409F
:1048F00089460C9904310F911A4200D0CAE1130085
:104900005B0600D5F0E013001B0600D459E20C9BB7
:1049100000229B5ED9175A184A4092B2D90F0C91C7
:10492000002B00D1F9E1100014AA944642461F233F
:10493000149252466344A84616944D460400B94664
:10494000B2461F00159201E0202D0FD020000A2151
:10495000FDF774FE01357E193031317020000A21D7
:10496000FDF76CFE26000400092EEDD8149B4F467F
:10497000A94645469846159B56469A46169C0D9B59
:10498000069343460593534604930A2303930C9BD3
:1049900002934B4601931CAB2200009359463B0007
:1049A0002800FEF74FFE0F9B04000C9372E4C046F4
:1049B000953500100C239A431000E7E607220C9B64
:1049C00007339343013294469C4462460C920CCBCD
:1049D000D90F0F911100194300D191E0D91713910C
:1049E00012915140109113995940119110981199B9
:1049F000129A139B801A99411090119114AA0023C6
:104A0000944642469946149252461F336344A84640
:104A1000B24616944E46109C119DB94615921F0041
:104A200001E0202E10D0200029000A220023FDF7EB
:104A300043FE013630322B00BA550D00220004002F
:104A4000002BEED1092AECD8149B10941195454601
:104A50009846159B4F46B14656469A46169C0D9B66
:104A6000069343460593534604930A2303930F9BEF
:104A700002934B4601931CAB2200009359463B0026
:104A80002800FEF7DFFD0400FFF704FC0F9B9845AC
:104A900000D8C1E18023DB000D9343460F9A1B1918
:104AA0009B1A994633002E004D46B9465F469B46F9
:104AB0000C9122004B46013439002020B047AC4213
:104AC000F7D143460C9901330F930B7835000C93C3
:104AD0005E46BB464F46002B00D10EE50D9B002BDA
:104AE00000D1F6E4002319E60C9B1B781A0015E7A9
:104AF00010239A430D92EFE60C9B1B78099361E615
:104B0000002399460028AAD1002200231092119375
:104B100074E70C9B2200187859463B00A8474C4686
:104B20008BE50C9AFA3BFF3B07329A4301339946D7
:104B300091444B460C931368526815921A4306D160
:104B40001032904300220992002900D081E06122B6
:104B5000810600D54122D2B20A9214AA91460A9A3D
:104B600000210A3A149242461792524618925A4627
:104B70000991B3461F311E000F9B4944BA46199450
:104B80001A950024674698468946159D16901B92F3
:104B90000AE03032D2B24B4601341A55A8454AD009
:104BA000202C4AD006000D003A00002330002900D6
:104BB000FDF782FDD2B2092AEBD9149B9C466244D0
:104BC000D2B2E8E76123820600D54123DBB20A3B7B
:104BD0000C93434614A91F228C46159353466244F6
:104BE000A046B2464C461797A9461700099D0D9E50
:104BF0001490169308E03033DBB201343B55B542D4
:104C00000ED3202C0CD0050031002800FDF716FD36
:104C1000CBB20929EFD90C9A94466344DBB2ECE796
:104C2000159B4D46A14644469846169B56461498F9
:104C30009A46179FD0E5B742B2D9179B5746984678
:104C4000189B5E469A461B9B09949B461698199C96
:104C50001A9D43460593534604930D9B0690039378
:104C600000230293099B05E70F9B984500D914E7A1
:104C700001330F932DE41023110099430D916928FE
:104C800000D0BAE080231000DB0018401A4200D1A7
:104C900022E61DE60C9B1B68DA0F1100002B00D1E9
:104CA0008CE0DA179818504014AA914642461F2308
:104CB000149252464B44A046A946169704006546F6
:104CC000B2461F000C91159201E0202D0FD020005C
:104CD0000A21FDF7B3FC01357E1930313170200017
:104CE0000A21FDF7ABFC26000400092EEDD8149B29
:104CF000444698460C9BAC461900159B56464D46BB
:104D00009A46169F0D9B0291069343460593534680
:104D100004930A23039363463CE6002800D02EE662
:104D200002E60C9B1B689946002B03D11033984375
:104D3000002938D16123820600D54123DBB20A3B2A
:104D40000C9343461693534614A91F228C4617937F
:104D50002B006244A0464D46B2461897994617006C
:104D6000149C0D9E159008E03033DBB201343B55A6
:104D7000B5420ED3202C0CD0050031002800FDF7E1
:104D80005DFCCBB20929EFD90C9A94466344DBB29F
:104D9000ECE7169B149444469846179B56464D469E
:104DA0009A461598189F43460593534604930D9BC6
:104DB0000690039300230293149BEBE50028A1D1F6
:104DC00072E70C9B1B68D9175A184A40A6E5802346
:104DD0001000DB0018409C460F901A420FD00220B2
:104DE000030013400F93104219D00023A1460F93E4
:104DF0004CE50C9B1B680993E4E40A0034E40223AD
:104E0000180010400D90134200D03EE54346002BA1
:104E100000D042E6FFF771FB01330F937FE4634656
:104E20000D93F3E70EB4012230B584B007AC08CC83
:104E3000064D01000094280052420394FFF702FA45
:104E400004B030BC08BC03B01847C0468D35001014
:104E50000FB430B50C4985B008AA08CA0D68039292
:104E6000002D0CD000920122084C5242200002A9D1
:104E7000A847012005B030BC08BC04B01847180092
:104E800000F0B8F90020F5E7A03300201138001039
:104E900010B5094A0300146884B0002C08D0012220
:104EA00000910648524203A9A047012004B010BD5A
:104EB00000F0A0F90020F9E7A0330020113800101D
:104EC00000BEFDE7094A03001068002805D0084924
:104ED000C3188B4207D81360704706480449C318AB
:104EE00010608B42F7D901204042F5E79C2F00204B
:104EF00000000420004D002010B5FFF7E1FFC04680
:104F000030B50D0083B01900002A0BD0074B084CB8
:104F10000192009302002B002000FFF799FF01206F
:104F2000FFF7CEFF034B1A00F1E7C04638B100107F
:104F300048B1001010B0001070B5FDF733FA074DFE
:104F4000074EB54209D20024013E761BB60808CDB3
:104F5000984723000134B342F9D170BDE4AF00108B
:104F6000F0AF0010030010B5080011001B6898474F
:104F700010BDC046F0B5C64600B5437D07000C0025
:104F80001600002B46D0002A17DD0B780A2B24D000
:104F900000239846012E13D001252900635C0135BA
:104FA0000A2B26D0B542F8D1464509DCA419013CAC
:104FB00023780D3B5A4253413B7580BCB846F0BD47
:104FC0004346E018A419F11A013C3B68984723783E
:104FD0000D3B5A4253413B75EFE7037D002BD7D180
:104FE00002210F483B689847012EDFD001239846E5
:104FF000D2E7631E5B5C0D2BD4D0884504DA4346B0
:10500000C91AE0183B689847022105483B68A84642
:105010009847C7E70368110020009847CDE7C046CE
:1050200018B50010F0B54546DE464E465746E0B589
:1050300083B091461C0080460D00FCF7D9FE00238A
:10504000304A12184B41002B02DA01222E4B5242F9
:105050002E4908008A4605F077FF07006B1C03D134
:10506000404602F0DFFD0500002C27D0284E294BDA
:105070001C68002C18D04B46002B21D1264B99469A
:1050800002E02469002C0FD02368002BF9D04B4696
:105090001B68002B01D09C42F3D120002A0041461E
:1050A000B0472469002CEFD1002F26D1280003B08F
:1050B000F0BCBB46B246A946A046F0BD174ED6E7A7
:1050C000154B99460A239B4602E02469002CEBD03D
:1050D0002368002BF9D04B461B68002B01D0A3425C
:1050E000F3D12A0041462000B0476B465A462000C3
:1050F000DA71D91D0122B047E7E7504605F0ECFE12
:10510000D4E7C04640420F00FFFFFF7FD8170020C2
:10511000754F0010902F0020982F0020654F001031
:105120000A4A1368002B05D10CE01A001B691032E3
:10513000002B07D08342F8D1002902D118691060F2
:10514000196170470029FCD01060FAE7902F002009
:1051500010B500F03BF900F077FB012010BDC04610
:10516000F0B5CE46474680B583B06B460600DD1DE0
:105170002870FCF73DFE0023194A12184B41002B02
:1051800002DA0122174B524217490800884605F0FF
:10519000DBFE164B81461C68002C14D0144F02E035
:1051A0002469002C0FD02368002BF9D03B68002B1A
:1051B00001D09C42F4D1200001222900FFF7DAFE41
:1051C0002469002CEFD14B46002B05D1300003B0F1
:1051D000C0BCB946B046F0BD404605F07DFEF5E7DF
:1051E00040420F00FFFFFF7FD8170020902F0020C4
:1051F000982F002070B5040002F014FD0123010077
:10520000050001222000FFF70DFF084B1C68002C51
:1052100006D06368002B05D098472469002CF8D18C
:10522000280070BD2469002CF3D1F9E7902F0020ED
:10523000F0B5002915DD0E4B0D271A680D4B0E4CED
:10524000D3185D426B41451820215B001E5F047836
:10525000A64207D093691942FCD101301460A842DC
:10526000F5D1F0BD93691942FCD11760F2E7C04651
:10527000E04C00200080FCBFDC4C0020204B70B5CF
:1052800004000D1E1E682ADD002010211D4B013C6C
:105290001A689369194214D1013093691942FCD1FB
:1052A000136823548542F4D1002E08D05023936311
:1052B000516B183B0B4014498C4662441360280024
:1052C00070BD002E08D050239363516B183B0B40E8
:1052D0000D498C46624413600028F1D10CE0002E89
:1052E0000AD05022074B1B689A63596B183A0A4040
:1052F00005498C4663441A6003204042E0E7C046FB
:10530000242F0020E04C002034100000064B10B584
:105310001B68002B06D00021044A12689163044ADE
:105320001068984710BDC046242F0020E04C002094
:105330002C2F00200822034B19688B691A42FCD1DC
:105340007047C046E04C0020F8B51A4F1A4B3A6837
:105350000500D31858424341184E14331C003368DB
:10536000002D02D0002B0FD0F8BD002BFCD0002167
:1053700020009563FBF714FE20001149FBF76CFF3A
:10538000104B35601D60EFE70E4B200019600C4993
:105390003560FBF73DFE01212000FBF701FE5022A6
:1053A0003B689A63596B183A0A4007498C46634434
:1053B0001A60D9E7E04C00200080FCBF242F0020B9
:1053C0000D5300102C2F0020341000000D4B10B591
:1053D0001B780D4B0D4C1B780D4B02211B780D4B90
:1053E00000202360FBF700FD02210120FBF7FCFCFD
:1053F000E12120684902FCF749FD01210648FFF739
:105400008FFE10BD0CBC001008BC0010E04C00204A
:1054100004BC001000400340C01000207047C0468C
:105420000022014B1A707047FA4C00204B79002083
:10543000FF2B0BD18B79002B08D1CB79012B05D118
:10544000082A03D9024B8A7809301A707047C0467F
:10545000FA4C00200120704710B5012913D11249E0
:105460005379107909781B0203430020994200D038
:1054700010BD5378012B08D0022BF9D164220021F2
:105480000020FCF7D9FE0120F2E7D37891781B02C7
:105490001943480ADB0501D4012040427F238A05D5
:1054A000D20F1940FCF750FFFA4C0020004870471B
:1054B00000B6001070B5050014000120012909D1C3
:1054C00053780020012B05D1637912791B02134315
:1054D000072B00D070BD21002800024A9F3301F045
:1054E00055FAF7E758B500100123037000487047DC
:1054F00038B500104B780A781B0213438A7810B530
:1055000012041A43CB781B0613439622D20093420F
:1055100000D010BD0022012011004042FCF714FF12
:10552000024B1860024B19607047C046282F0020BC
:10553000302F002010B5024B1878FBF74FFD10BD3F
:10554000FB4C0020154B70B51A68002A22D0EFF3EF
:10555000108172B610680028FCD0BFF35F8F002066
:105560000F4A596010701B68BFF35F8F186081F39A
:105570001088002400250B4E3078FBF723FD00280F
:1055800004D1002400252900200070BD3078FBF7ED
:1055900025FDF8E7FA240025A400ECE7AC33002051
:1055A000FC4C0020FB4C002070B5040000200E00D5
:1055B00001F00AFB002834D0002001F01BFB00287A
:1055C0002FD0FCF715FC0023174A12184B41002B73
:1055D00016DB164D280005F0B7FC002821D000206E
:1055E00001F0F2FA00280FD101200021404200F022
:1055F00001FD03246442280005F06EFC200070BD0C
:1056000001220B4B5242E4E7002001F0F3FA00289C
:10561000EAD021003200002001F0F6FA041EEAD19F
:10562000E7E703246442E9E740420F00D44C00203E
:10563000FFFFFF7F10B5FCF7DBFB00230D4A1218BC
:105640004B41002B02DA01220B4B52420B4C200043
:1056500005F07AFC00280CD001200021404200F027
:10566000C9FC002001F014FB0028F5D1200005F052
:1056700033FC10BD40420F00FFFFFF7FD44C0020E1
:10568000F8B5DE46574680B505000C00FCF7B0FBC8
:105690000023364A12184B41002B02DA0122344B08
:1056A0005242344908008A4605F04EFC002803D1D6
:1056B000C0BCBB46B246F8BD002001F085FA002808
:1056C0004AD00026002C43DD2B4B9B4614E0A91941
:1056D000002001F017FB070001200021404200F0EC
:1056E00089FC002001F0D4FAFCF782FB224BF6196A
:1056F00018605960B4422BDD002001F023FBA71B8A
:105700000200B84200DD3A00002AE0D10120002169
:10571000404200F06FFC002001F0BAFA002001F0D6
:1057200053FA002814D0002001F00CFB0028E1D12E
:10573000FCF75EFB5B460F001A685B68002184463D
:105740000E4812184B419F4202D8D3D19445D1D96B
:10575000504605F0C1FBABE700200021064B186066
:105760005960504605F0B8FBA2E7C04640420F0022
:10577000FFFFFF7FD44C00206019002020A107000C
:1057800030B52A4C85B00021200005F0BDFB002873
:105790001CD1274B1A68002A16D0EFF3108172B67D
:1057A00010680028FCD0BFF35F8F012421485960A6
:1057B00002781B68D2B20470BFF35F8F00201860BC
:1057C00081F31088002A17D005B030BD01200021D8
:1057D000404200F00FFC002001F00CFA0500200010
:1057E00005F07AFB002DEFD0134B1B68002BEBD09C
:1057F000124A10689847E7E7FCF7E4F80400FCF762
:10580000F7FAFA220023920012184B41002B02DA19
:1058100001220B4B524201210291002101910949C1
:1058200020000091FCF7D2F8CEE7C046D44C00200F
:10583000AC330020FC4C0020282F0020302F00200B
:10584000FFFFFF7F45550010D02310B51B0684B025
:105850001C68FCF7B7F8FCF7B3F9A04202D00020AF
:1058600004B010BD294B002100201B7801F05EFD23
:1058700027480368002B45D00120FBF731FEFF23AA
:10588000244C254920701840FBF7C2FB20780121E9
:10589000FBF786FB0520FBF7A9FB002824D1082293
:1058A00000211E48FDF766FEFCF78CF80400FCF7AB
:1058B0009FFAFA220023920012184B41002B02DAC1
:1058C0000122174B524201210291002101911549F9
:1058D00020000091FCF77AF80028C0DB1248012173
:1058E000FFF71EFC0120BBE70120FBF727FB0B4B5A
:1058F00001001800FBF756FE002205200B49FBF7BC
:10590000B1FBEBE7FBF732FEB6E7C04610BC001078
:10591000D44C0020FB4C002081570010AC330020F9
:10592000FFFFFF7F45550010D810002035550010AF
:10593000004870479CB600100048704748B60010F9
:1059400010B5040017480378002B20D0002C06D196
:10595000154B16484380063BFF3B038010BD052CCA
:105960001DD8134BA400E05812490123013804E06C
:1059700001330A800231142B0DD0C25C002AF7D10A
:10598000C022DBB25B00920008481343E5E7112117
:1059900000F01AF8DAE7CA2304489B00DDE700208C
:1059A000DCE7C046E44C002009040000682F00201A
:1059B00030B600106A2F002010B5024800F0D8F869
:1059C00010BDC046C44C002030B54B1E012900D18B
:1059D000A7E0664A11780D092C0030349F2900D9C0
:1059E000A2E00470012B00D1BEE00F211478214009
:1059F0000C003034092900D998E04470022B00D102
:105A0000B2E054782509290030319F2C00D990E06C
:105A10008170032B00D1A7E00F2121400C0030340E
:105A2000092900D987E0C470042B00D19CE0947848
:105A30002509290030319F2C00D97FE00171052B09
:105A400000D191E00F2121400C003034092900D908
:105A500076E04471062B00D186E0D4782509290030
:105A600030319F2C00D96EE08171072B00D17BE093
:105A70000F2121400C003034092966D8C471082B4D
:105A800000D171E014792509290030319F2C5FD8AD
:105A90000172092B68D00F2121400C0030340929F4
:105AA00058D844720A2B5FD0547925092900303127
:105AB0009F2C52D881720B2B56D00F2121400C0005
:105AC000303409294BD8C4720C2B4DD09479250958
:105AD000290030319F2C00D9073101730D2B43D0A1
